{
  "address": "0x99fAD8B3658d185474e13D1bE98660dc30077b26",
  "abi": [
    {
      "inputs": [
        {
          "internalType": "address",
          "name": "owner",
          "type": "address"
        },
        {
          "internalType": "uint8",
          "name": "curveType",
          "type": "uint8"
        },
        {
          "internalType": "bool",
          "name": "managed",
          "type": "bool"
        },
        {
          "internalType": "uint16",
          "name": "durationWeeks",
          "type": "uint16"
        },
        {
          "internalType": "uint64",
          "name": "startDate",
          "type": "uint64"
        },
        {
          "internalType": "uint128",
          "name": "amount",
          "type": "uint128"
        },
        {
          "internalType": "uint128",
          "name": "initialUnlock",
          "type": "uint128"
        },
        {
          "internalType": "bool",
          "name": "requiresSPT",
          "type": "bool"
        }
      ],
      "name": "vestingHash",
      "outputs": [
        {
          "internalType": "bytes32",
          "name": "vestingId",
          "type": "bytes32"
        }
      ],
      "stateMutability": "pure",
      "type": "function"
    }
  ],
  "transactionHash": "0x234cae9d65086540790674f93df651890f36e8be33e5b4e2ecaa65fea73e5e93",
  "args": [],
  "numDeployments": 1,
  "solcInputHash": "e2d6d0ee9cfeab87733f4cc6bcb4889b",
  "bytecode": "0x6106a8610053600b82828239805160001a607314610046577f4e487b7100000000000000000000000000000000000000000000000000000000600052600060045260246000fd5b30600052607381538281f3fe73000000000000000000000000000000000000000030146080604052600436106100355760003560e01c806330745bde1461003a575b600080fd5b610054600480360381019061004f91906102ec565b61006a565b60405161006191906103bb565b60405180910390f35b6000807fb03948446334eb9b2196d5eb166f69b9d49403eb4a12f36de8d3f9f3cb8e15c360405160200161009e919061048e565b60405160208183030381529060405280519060200120905060007f7deedebdf7471b79136e23a5a77d8167898952a519277f0ed7dd7520b2428d3d8b8b8b8b8b8b8b8b6040516020016100f999989796959493929190610529565b604051602081830303815290604052805190602001209050601960f81b600160f81b83836040516020016101309493929190610624565b604051602081830303815290604052805190602001209250505098975050505050505050565b600080fd5b600073ffffffffffffffffffffffffffffffffffffffff82169050919050565b60006101868261015b565b9050919050565b6101968161017b565b81146101a157600080fd5b50565b6000813590506101b38161018d565b92915050565b600060ff82169050919050565b6101cf816101b9565b81146101da57600080fd5b50565b6000813590506101ec816101c6565b92915050565b60008115159050919050565b610207816101f2565b811461021257600080fd5b50565b600081359050610224816101fe565b92915050565b600061ffff82169050919050565b6102418161022a565b811461024c57600080fd5b50565b60008135905061025e81610238565b92915050565b600067ffffffffffffffff82169050919050565b61028181610264565b811461028c57600080fd5b50565b60008135905061029e81610278565b92915050565b60006fffffffffffffffffffffffffffffffff82169050919050565b6102c9816102a4565b81146102d457600080fd5b50565b6000813590506102e6816102c0565b92915050565b600080600080600080600080610100898b03121561030d5761030c610156565b5b600061031b8b828c016101a4565b985050602061032c8b828c016101dd565b975050604061033d8b828c01610215565b965050606061034e8b828c0161024f565b955050608061035f8b828c0161028f565b94505060a06103708b828c016102d7565b93505060c06103818b828c016102d7565b92505060e06103928b828c01610215565b9150509295985092959890939650565b6000819050919050565b6103b5816103a2565b82525050565b60006020820190506103d060008301846103ac565b92915050565b6103df816103a2565b82525050565b600082825260208201905092915050565b7f56657374696e674c696272617279000000000000000000000000000000000000600082015250565b600061042c600e836103e5565b9150610437826103f6565b602082019050919050565b7f312e300000000000000000000000000000000000000000000000000000000000600082015250565b60006104786003836103e5565b915061048382610442565b602082019050919050565b60006060820190506104a360008301846103d6565b81810360208301526104b48161041f565b905081810360408301526104c78161046b565b905092915050565b6104d88161017b565b82525050565b6104e7816101b9565b82525050565b6104f6816101f2565b82525050565b6105058161022a565b82525050565b61051481610264565b82525050565b610523816102a4565b82525050565b60006101208201905061053f600083018c6103d6565b61054c602083018b6104cf565b610559604083018a6104de565b61056660608301896104ed565b61057360808301886104fc565b61058060a083018761050b565b61058d60c083018661051a565b61059a60e083018561051a565b6105a86101008301846104ed565b9a9950505050505050505050565b60007fff0000000000000000000000000000000000000000000000000000000000000082169050919050565b6000819050919050565b6105fd6105f8826105b6565b6105e2565b82525050565b6000819050919050565b61061e610619826103a2565b610603565b82525050565b600061063082876105ec565b60018201915061064082866105ec565b600182019150610650828561060d565b602082019150610660828461060d565b6020820191508190509594505050505056fea264697066735822122049b634e28455e4ff87ba0670daf1ae61e8ee11eca563aef2069b4c26c8bcc08164736f6c63430008160033",
  "devdoc": {
    "kind": "dev",
    "methods": {
      "vestingHash(address,uint8,bool,uint16,uint64,uint128,uint128,bool)": {
        "params": {
          "amount": "Amount of tokens that are vested in atoms",
          "curveType": "Type of the curve that is used for the vesting",
          "durationWeeks": "The duration of the vesting in weeks",
          "initialUnlock": "Amount of tokens that are unlocked immediately in atoms",
          "managed": "Indicator if the vesting is managed by the pool manager",
          "owner": "The owner for which the vesting was created",
          "startDate": "The date when the vesting started (can be in the future)"
        },
        "returns": {
          "vestingId": "Id of a vesting based on its parameters"
        }
      }
    },
    "version": 1
  },
  "userdoc": {
    "kind": "user",
    "methods": {
      "vestingHash(address,uint8,bool,uint16,uint64,uint128,uint128,bool)": {
        "notice": "Calculate the id for a vesting based on its parameters."
      }
    },
    "version": 1
  },
  "storageLayout": {
    "storage": [],
    "types": null
  }
}