{
  "address": "0xD724DBe7e230E400fe7390885e16957Ec246d716",
  "abi": [
    {
      "inputs": [
        {
          "internalType": "address",
          "name": "_token",
          "type": "address"
        },
        {
          "internalType": "address",
          "name": "_vestingPoolImplementation",
          "type": "address"
        },
        {
          "internalType": "address",
          "name": "_dao",
          "type": "address"
        }
      ],
      "stateMutability": "nonpayable",
      "type": "constructor"
    },
    {
      "inputs": [],
      "name": "ERC1167FailedCreateClone",
      "type": "error"
    },
    {
      "inputs": [
        {
          "internalType": "address",
          "name": "account",
          "type": "address"
        },
        {
          "internalType": "uint8",
          "name": "curveType",
          "type": "uint8"
        },
        {
          "internalType": "bool",
          "name": "managed",
          "type": "bool"
        },
        {
          "internalType": "uint16",
          "name": "durationWeeks",
          "type": "uint16"
        },
        {
          "internalType": "uint64",
          "name": "startDate",
          "type": "uint64"
        },
        {
          "internalType": "uint128",
          "name": "amount",
          "type": "uint128"
        },
        {
          "internalType": "uint128",
          "name": "initialUnlock",
          "type": "uint128"
        },
        {
          "internalType": "bool",
          "name": "requiresSPT",
          "type": "bool"
        }
      ],
      "name": "addVesting",
      "outputs": [
        {
          "internalType": "bytes32",
          "name": "",
          "type": "bytes32"
        }
      ],
      "stateMutability": "nonpayable",
      "type": "function"
    },
    {
      "inputs": [],
      "name": "dao",
      "outputs": [
        {
          "internalType": "address",
          "name": "",
          "type": "address"
        }
      ],
      "stateMutability": "view",
      "type": "function"
    },
    {
      "inputs": [
        {
          "internalType": "address",
          "name": "user",
          "type": "address"
        }
      ],
      "name": "getVestingPool",
      "outputs": [
        {
          "internalType": "address",
          "name": "",
          "type": "address"
        }
      ],
      "stateMutability": "view",
      "type": "function"
    },
    {
      "inputs": [],
      "name": "token",
      "outputs": [
        {
          "internalType": "contract ShutterToken",
          "name": "",
          "type": "address"
        }
      ],
      "stateMutability": "view",
      "type": "function"
    },
    {
      "inputs": [],
      "name": "vestingPoolImplementation",
      "outputs": [
        {
          "internalType": "address",
          "name": "",
          "type": "address"
        }
      ],
      "stateMutability": "view",
      "type": "function"
    }
  ],
  "transactionHash": "0x47add34916a4f5ab6bdc26c9c1ed0fec16243a46f6f3975cb29e51edf1b230e3",
  "args": [
    "0xe485E2f1bab389C08721B291f6b59780feC83Fd7",
    "0xCD767be96eB169B1Ae089fF03C3F8ebec2053525",
    "0x36bD3044ab68f600f6d3e081056F34f2a58432c4"
  ],
  "numDeployments": 1,
  "solcInputHash": "e2d6d0ee9cfeab87733f4cc6bcb4889b",
  "bytecode": "0x60e06040523480156200001157600080fd5b50604051620014a1380380620014a1833981810160405281019062000037919062000146565b8273ffffffffffffffffffffffffffffffffffffffff1660a08173ffffffffffffffffffffffffffffffffffffffff16815250508173ffffffffffffffffffffffffffffffffffffffff1660808173ffffffffffffffffffffffffffffffffffffffff16815250508073ffffffffffffffffffffffffffffffffffffffff1660c08173ffffffffffffffffffffffffffffffffffffffff1681525050505050620001a2565b600080fd5b600073ffffffffffffffffffffffffffffffffffffffff82169050919050565b60006200010e82620000e1565b9050919050565b620001208162000101565b81146200012c57600080fd5b50565b600081519050620001408162000115565b92915050565b600080600060608486031215620001625762000161620000dc565b5b600062000172868287016200012f565b935050602062000185868287016200012f565b925050604062000198868287016200012f565b9150509250925092565b60805160a05160c0516112a5620001fc6000396000818161039801526108020152600081816101bc0152818161025f015281816104bc01528181610666015261083e015260008181610498015261062201526112a56000f3fe608060405234801561001057600080fd5b50600436106100575760003560e01c8063321f67f11461005c5780634162169f1461008c5780638c4828c3146100aa5780638e96340b146100da578063fc0c546a146100f8575b600080fd5b61007660048036038101906100719190610b50565b610116565b6040516100839190610c1f565b60405180910390f35b610094610396565b6040516100a19190610c49565b60405180910390f35b6100c460048036038101906100bf9190610c64565b6103ba565b6040516100d19190610c49565b60405180910390f35b6100e2610496565b6040516100ef9190610c49565b60405180910390f35b6101006104ba565b60405161010d9190610cf0565b60405180910390f35b6000806000808b73ffffffffffffffffffffffffffffffffffffffff1673ffffffffffffffffffffffffffffffffffffffff16815260200190815260200160002060009054906101000a900473ffffffffffffffffffffffffffffffffffffffff169050600073ffffffffffffffffffffffffffffffffffffffff168173ffffffffffffffffffffffffffffffffffffffff16036101ba576101b78a6104de565b90505b7f000000000000000000000000000000000000000000000000000000000000000073ffffffffffffffffffffffffffffffffffffffff16635c975abb6040518163ffffffff1660e01b8152600401602060405180830381865afa158015610225573d6000803e3d6000fd5b505050506040513d601f19601f820116820180604052508101906102499190610d20565b1561025d576102588a8661075d565b6102ff565b7f000000000000000000000000000000000000000000000000000000000000000073ffffffffffffffffffffffffffffffffffffffff166323b872dd3383886040518463ffffffff1660e01b81526004016102ba93929190610d88565b6020604051808303816000875af11580156102d9573d6000803e3d6000fd5b505050506040513d601f19601f820116820180604052508101906102fd9190610d20565b505b8073ffffffffffffffffffffffffffffffffffffffff1663fec008788a8a8a8a8a8a8a6040518863ffffffff1660e01b81526004016103449796959493929190610e0a565b6020604051808303816000875af1158015610363573d6000803e3d6000fd5b505050506040513d601f19601f820116820180604052508101906103879190610ea5565b91505098975050505050505050565b7f000000000000000000000000000000000000000000000000000000000000000081565b6000806000808473ffffffffffffffffffffffffffffffffffffffff1673ffffffffffffffffffffffffffffffffffffffff16815260200190815260200160002060009054906101000a900473ffffffffffffffffffffffffffffffffffffffff169050600073ffffffffffffffffffffffffffffffffffffffff168173ffffffffffffffffffffffffffffffffffffffff160361048d576040517f08c379a000000000000000000000000000000000000000000000000000000000815260040161048490610f2f565b60405180910390fd5b80915050919050565b7f000000000000000000000000000000000000000000000000000000000000000081565b7f000000000000000000000000000000000000000000000000000000000000000081565b60008073ffffffffffffffffffffffffffffffffffffffff168273ffffffffffffffffffffffffffffffffffffffff160361054e576040517f08c379a000000000000000000000000000000000000000000000000000000000815260040161054590610f9b565b60405180910390fd5b600073ffffffffffffffffffffffffffffffffffffffff166000808473ffffffffffffffffffffffffffffffffffffffff1673ffffffffffffffffffffffffffffffffffffffff16815260200190815260200160002060009054906101000a900473ffffffffffffffffffffffffffffffffffffffff1673ffffffffffffffffffffffffffffffffffffffff161461061b576040517f08c379a00000000000000000000000000000000000000000000000000000000081526004016106129061102d565b60405180910390fd5b60006106467f0000000000000000000000000000000000000000000000000000000000000000610909565b90508073ffffffffffffffffffffffffffffffffffffffff1663c0c53b8b7f000000000000000000000000000000000000000000000000000000000000000030866040518463ffffffff1660e01b81526004016106a59392919061104d565b600060405180830381600087803b1580156106bf57600080fd5b505af11580156106d3573d6000803e3d6000fd5b50505050806000808573ffffffffffffffffffffffffffffffffffffffff1673ffffffffffffffffffffffffffffffffffffffff16815260200190815260200160002060006101000a81548173ffffffffffffffffffffffffffffffffffffffff021916908373ffffffffffffffffffffffffffffffffffffffff16021790555080915050919050565b6000610768836103ba565b9050600033828460405160240161078193929190611084565b6040516020818303038152906040527f23b872dd000000000000000000000000000000000000000000000000000000007bffffffffffffffffffffffffffffffffffffffffffffffffffffffff19166020820180517bffffffffffffffffffffffffffffffffffffffffffffffffffffffff838183161783525050505090507f000000000000000000000000000000000000000000000000000000000000000073ffffffffffffffffffffffffffffffffffffffff1663468721a77f000000000000000000000000000000000000000000000000000000000000000060008460006040518563ffffffff1660e01b815260040161088194939291906111b7565b6020604051808303816000875af11580156108a0573d6000803e3d6000fd5b505050506040513d601f19601f820116820180604052508101906108c49190610d20565b610903576040517f08c379a00000000000000000000000000000000000000000000000000000000081526004016108fa9061124f565b60405180910390fd5b50505050565b6000763d602d80600a3d3981f3363d3d373d3d3d363d730000008260601b60e81c176000526e5af43d82803e903d91602b57fd5bf38260781b17602052603760096000f09050600073ffffffffffffffffffffffffffffffffffffffff168173ffffffffffffffffffffffffffffffffffffffff16036109b5576040517fc2f868f400000000000000000000000000000000000000000000000000000000815260040160405180910390fd5b919050565b600080fd5b600073ffffffffffffffffffffffffffffffffffffffff82169050919050565b60006109ea826109bf565b9050919050565b6109fa816109df565b8114610a0557600080fd5b50565b600081359050610a17816109f1565b92915050565b600060ff82169050919050565b610a3381610a1d565b8114610a3e57600080fd5b50565b600081359050610a5081610a2a565b92915050565b60008115159050919050565b610a6b81610a56565b8114610a7657600080fd5b50565b600081359050610a8881610a62565b92915050565b600061ffff82169050919050565b610aa581610a8e565b8114610ab057600080fd5b50565b600081359050610ac281610a9c565b92915050565b600067ffffffffffffffff82169050919050565b610ae581610ac8565b8114610af057600080fd5b50565b600081359050610b0281610adc565b92915050565b60006fffffffffffffffffffffffffffffffff82169050919050565b610b2d81610b08565b8114610b3857600080fd5b50565b600081359050610b4a81610b24565b92915050565b600080600080600080600080610100898b031215610b7157610b706109ba565b5b6000610b7f8b828c01610a08565b9850506020610b908b828c01610a41565b9750506040610ba18b828c01610a79565b9650506060610bb28b828c01610ab3565b9550506080610bc38b828c01610af3565b94505060a0610bd48b828c01610b3b565b93505060c0610be58b828c01610b3b565b92505060e0610bf68b828c01610a79565b9150509295985092959890939650565b6000819050919050565b610c1981610c06565b82525050565b6000602082019050610c346000830184610c10565b92915050565b610c43816109df565b82525050565b6000602082019050610c5e6000830184610c3a565b92915050565b600060208284031215610c7a57610c796109ba565b5b6000610c8884828501610a08565b91505092915050565b6000819050919050565b6000610cb6610cb1610cac846109bf565b610c91565b6109bf565b9050919050565b6000610cc882610c9b565b9050919050565b6000610cda82610cbd565b9050919050565b610cea81610ccf565b82525050565b6000602082019050610d056000830184610ce1565b92915050565b600081519050610d1a81610a62565b92915050565b600060208284031215610d3657610d356109ba565b5b6000610d4484828501610d0b565b91505092915050565b6000819050919050565b6000610d72610d6d610d6884610b08565b610c91565b610d4d565b9050919050565b610d8281610d57565b82525050565b6000606082019050610d9d6000830186610c3a565b610daa6020830185610c3a565b610db76040830184610d79565b949350505050565b610dc881610a1d565b82525050565b610dd781610a56565b82525050565b610de681610a8e565b82525050565b610df581610ac8565b82525050565b610e0481610b08565b82525050565b600060e082019050610e1f600083018a610dbf565b610e2c6020830189610dce565b610e396040830188610ddd565b610e466060830187610dec565b610e536080830186610dfb565b610e6060a0830185610dfb565b610e6d60c0830184610dce565b98975050505050505050565b610e8281610c06565b8114610e8d57600080fd5b50565b600081519050610e9f81610e79565b92915050565b600060208284031215610ebb57610eba6109ba565b5b6000610ec984828501610e90565b91505092915050565b600082825260208201905092915050565b7f56657374696e6720706f6f6c20646f6573206e6f742065786973740000000000600082015250565b6000610f19601b83610ed2565b9150610f2482610ee3565b602082019050919050565b60006020820190508181036000830152610f4881610f0c565b9050919050565b7f496e76616c696420757365722061646472657373000000000000000000000000600082015250565b6000610f85601483610ed2565b9150610f9082610f4f565b602082019050919050565b60006020820190508181036000830152610fb481610f78565b9050919050565b7f56657374696e6720706f6f6c20616c72656164792065786973747320666f722060008201527f7468652075736572000000000000000000000000000000000000000000000000602082015250565b6000611017602883610ed2565b915061102282610fbb565b604082019050919050565b600060208201905081810360008301526110468161100a565b9050919050565b60006060820190506110626000830186610c3a565b61106f6020830185610c3a565b61107c6040830184610c3a565b949350505050565b60006060820190506110996000830186610c3a565b6110a66020830185610c3a565b6110b36040830184610dfb565b949350505050565b6000819050919050565b60006110e06110db6110d6846110bb565b610c91565b610d4d565b9050919050565b6110f0816110c5565b82525050565b600081519050919050565b600082825260208201905092915050565b60005b83811015611130578082015181840152602081019050611115565b60008484015250505050565b6000601f19601f8301169050919050565b6000611158826110f6565b6111628185611101565b9350611172818560208601611112565b61117b8161113c565b840191505092915050565b60006111a161119c611197846110bb565b610c91565b610a1d565b9050919050565b6111b181611186565b82525050565b60006080820190506111cc6000830187610c3a565b6111d960208301866110e7565b81810360408301526111eb818561114d565b90506111fa60608301846111a8565b95945050505050565b7f4d6f64756c65207472616e73616374696f6e206661696c656400000000000000600082015250565b6000611239601983610ed2565b915061124482611203565b602082019050919050565b600060208201905081810360008301526112688161122c565b905091905056fea2646970667358221220b319e54d23d8d87a401e670ef055db9a1386f6e5ddbbd3e22d04e28778fb75fb64736f6c63430008160033",
  "devdoc": {
    "author": "Daniel Dimitrov - @compojoom, Fred Lhrs - @fredo",
    "errors": {
      "ERC1167FailedCreateClone()": [
        {
          "details": "A clone instance deployment failed."
        }
      ]
    },
    "kind": "dev",
    "methods": {
      "addVesting(address,uint8,bool,uint16,uint64,uint128,uint128,bool)": {
        "params": {
          "account": "The user for which the vesting should be added",
          "amount": "Amount of tokens that should be vested in wei",
          "curveType": "Type of the curve that should be used for the vesting",
          "durationWeeks": "The duration of the vesting in weeks",
          "initialUnlock": "Amount of tokens that should be unlocked initially in wei",
          "managed": "Whether the vesting should be managed or not",
          "startDate": "The date when the vesting should be started (can be in the past)"
        },
        "returns": {
          "_0": "The id of the vesting that was created"
        }
      },
      "getVestingPool(address)": {
        "params": {
          "user": "The user for which the vesting pool address should be returned"
        },
        "returns": {
          "_0": "The vesting pool address for the user"
        }
      }
    },
    "title": "Vesting Pool Manager",
    "version": 1
  },
  "userdoc": {
    "kind": "user",
    "methods": {
      "addVesting(address,uint8,bool,uint16,uint64,uint128,uint128,bool)": {
        "notice": "Add a vesting to the vesting pool of the user"
      },
      "getVestingPool(address)": {
        "notice": "Get the vesting pool for the user or revert if it does not exist"
      }
    },
    "version": 1
  },
  "storageLayout": {
    "storage": [
      {
        "astId": 9900,
        "contract": "contracts/VestingPoolManager.sol:VestingPoolManager",
        "label": "userToVestingPool",
        "offset": 0,
        "slot": "0",
        "type": "t_mapping(t_address,t_address)"
      }
    ],
    "types": {
      "t_address": {
        "encoding": "inplace",
        "label": "address",
        "numberOfBytes": "20"
      },
      "t_mapping(t_address,t_address)": {
        "encoding": "mapping",
        "key": "t_address",
        "label": "mapping(address => address)",
        "numberOfBytes": "32",
        "value": "t_address"
      }
    }
  }
}