{
  "address": "0x5fa005e8a4d45695f7E9EB81cf4f7d0FDbcAE0E2",
  "abi": [
    {
      "inputs": [
        {
          "internalType": "contract AddrsSeq",
          "name": "_addrsSeq",
          "type": "address"
        }
      ],
      "stateMutability": "nonpayable",
      "type": "constructor"
    },
    {
      "inputs": [
        {
          "internalType": "address",
          "name": "owner",
          "type": "address"
        }
      ],
      "name": "OwnableInvalidOwner",
      "type": "error"
    },
    {
      "inputs": [
        {
          "internalType": "address",
          "name": "account",
          "type": "address"
        }
      ],
      "name": "OwnableUnauthorizedAccount",
      "type": "error"
    },
    {
      "anonymous": false,
      "inputs": [
        {
          "indexed": false,
          "internalType": "uint64",
          "name": "activationBlockNumber",
          "type": "uint64"
        },
        {
          "indexed": false,
          "internalType": "uint64",
          "name": "keyperSetIndex",
          "type": "uint64"
        },
        {
          "indexed": false,
          "internalType": "uint64",
          "name": "keyperConfigIndex",
          "type": "uint64"
        },
        {
          "indexed": false,
          "internalType": "uint64",
          "name": "threshold",
          "type": "uint64"
        }
      ],
      "name": "NewConfig",
      "type": "event"
    },
    {
      "anonymous": false,
      "inputs": [
        {
          "indexed": true,
          "internalType": "address",
          "name": "previousOwner",
          "type": "address"
        },
        {
          "indexed": true,
          "internalType": "address",
          "name": "newOwner",
          "type": "address"
        }
      ],
      "name": "OwnershipTransferred",
      "type": "event"
    },
    {
      "inputs": [
        {
          "components": [
            {
              "internalType": "uint64",
              "name": "activationBlockNumber",
              "type": "uint64"
            },
            {
              "internalType": "uint64",
              "name": "setIndex",
              "type": "uint64"
            },
            {
              "internalType": "uint64",
              "name": "threshold",
              "type": "uint64"
            }
          ],
          "internalType": "struct KeypersConfig",
          "name": "config",
          "type": "tuple"
        }
      ],
      "name": "addNewCfg",
      "outputs": [],
      "stateMutability": "nonpayable",
      "type": "function"
    },
    {
      "inputs": [],
      "name": "addrsSeq",
      "outputs": [
        {
          "internalType": "contract AddrsSeq",
          "name": "",
          "type": "address"
        }
      ],
      "stateMutability": "view",
      "type": "function"
    },
    {
      "inputs": [
        {
          "internalType": "uint64",
          "name": "activationBlockNumber",
          "type": "uint64"
        }
      ],
      "name": "getActiveConfig",
      "outputs": [
        {
          "components": [
            {
              "internalType": "uint64",
              "name": "activationBlockNumber",
              "type": "uint64"
            },
            {
              "internalType": "uint64",
              "name": "setIndex",
              "type": "uint64"
            },
            {
              "internalType": "uint64",
              "name": "threshold",
              "type": "uint64"
            }
          ],
          "internalType": "struct KeypersConfig",
          "name": "",
          "type": "tuple"
        }
      ],
      "stateMutability": "view",
      "type": "function"
    },
    {
      "inputs": [
        {
          "internalType": "uint256",
          "name": "",
          "type": "uint256"
        }
      ],
      "name": "keypersConfigs",
      "outputs": [
        {
          "internalType": "uint64",
          "name": "activationBlockNumber",
          "type": "uint64"
        },
        {
          "internalType": "uint64",
          "name": "setIndex",
          "type": "uint64"
        },
        {
          "internalType": "uint64",
          "name": "threshold",
          "type": "uint64"
        }
      ],
      "stateMutability": "view",
      "type": "function"
    },
    {
      "inputs": [],
      "name": "owner",
      "outputs": [
        {
          "internalType": "address",
          "name": "",
          "type": "address"
        }
      ],
      "stateMutability": "view",
      "type": "function"
    },
    {
      "inputs": [],
      "name": "renounceOwnership",
      "outputs": [],
      "stateMutability": "nonpayable",
      "type": "function"
    },
    {
      "inputs": [
        {
          "internalType": "address",
          "name": "newOwner",
          "type": "address"
        }
      ],
      "name": "transferOwnership",
      "outputs": [],
      "stateMutability": "nonpayable",
      "type": "function"
    }
  ],
  "transactionHash": "0xb8d6e450bd2caa9fc7579d357b13b586089f412c83ebf593a278e2c1f78978ee",
  "args": [
    "0xf88823c6A253564Aa7717b12b86F6FEE259d95b7"
  ],
  "numDeployments": 1,
  "solcInputHash": "e2d6d0ee9cfeab87733f4cc6bcb4889b",
  "bytecode": "0x60806040523480156200001157600080fd5b5060405162001ad338038062001ad383398181016040528101906200003791906200046d565b33600073ffffffffffffffffffffffffffffffffffffffff168173ffffffffffffffffffffffffffffffffffffffff1603620000ad5760006040517f1e4fbdf7000000000000000000000000000000000000000000000000000000008152600401620000a49190620004b0565b60405180910390fd5b620000be816200032b60201b60201c565b5080600260006101000a81548173ffffffffffffffffffffffffffffffffffffffff021916908373ffffffffffffffffffffffffffffffffffffffff1602179055506000600260009054906101000a900473ffffffffffffffffffffffffffffffffffffffff1673ffffffffffffffffffffffffffffffffffffffff16632a2d01f860006040518263ffffffff1660e01b81526004016200016091906200052e565b602060405180830381865afa1580156200017e573d6000803e3d6000fd5b505050506040513d601f19601f82011682018060405250810190620001a491906200057c565b67ffffffffffffffff1614620001f1576040517f08c379a0000000000000000000000000000000000000000000000000000000008152600401620001e89062000635565b60405180910390fd5b60016040518060600160405280600067ffffffffffffffff168152602001600067ffffffffffffffff168152602001600067ffffffffffffffff168152509080600181540180825580915050600190039060005260206000200160009091909190915060008201518160000160006101000a81548167ffffffffffffffff021916908367ffffffffffffffff16021790555060208201518160000160086101000a81548167ffffffffffffffff021916908367ffffffffffffffff16021790555060408201518160000160106101000a81548167ffffffffffffffff021916908367ffffffffffffffff16021790555050507f97f0f7a37d08d48af6a5f7140aedcc4fa60e92ee1d0607f2d4868c8fc518cc0e6000806000806040516200031c949392919062000657565b60405180910390a150620006a4565b60008060009054906101000a900473ffffffffffffffffffffffffffffffffffffffff169050816000806101000a81548173ffffffffffffffffffffffffffffffffffffffff021916908373ffffffffffffffffffffffffffffffffffffffff1602179055508173ffffffffffffffffffffffffffffffffffffffff168173ffffffffffffffffffffffffffffffffffffffff167f8be0079c531659141344cd1fd0a4f28419497f9722a3daafe3b4186f6b6457e060405160405180910390a35050565b600080fd5b600073ffffffffffffffffffffffffffffffffffffffff82169050919050565b60006200042182620003f4565b9050919050565b6000620004358262000414565b9050919050565b620004478162000428565b81146200045357600080fd5b50565b60008151905062000467816200043c565b92915050565b600060208284031215620004865762000485620003ef565b5b6000620004968482850162000456565b91505092915050565b620004aa8162000414565b82525050565b6000602082019050620004c760008301846200049f565b92915050565b6000819050919050565b600067ffffffffffffffff82169050919050565b6000819050919050565b600062000516620005106200050a84620004cd565b620004eb565b620004d7565b9050919050565b6200052881620004f5565b82525050565b60006020820190506200054560008301846200051d565b92915050565b6200055681620004d7565b81146200056257600080fd5b50565b60008151905062000576816200054b565b92915050565b600060208284031215620005955762000594620003ef565b5b6000620005a58482850162000565565b91505092915050565b600082825260208201905092915050565b7f4164647273536571206d757374206861766520656d707479206c69737420617460008201527f20696e6465782030000000000000000000000000000000000000000000000000602082015250565b60006200061d602883620005ae565b91506200062a82620005bf565b604082019050919050565b6000602082019050818103600083015262000650816200060e565b9050919050565b60006080820190506200066e60008301876200051d565b6200067d60208301866200051d565b6200068c60408301856200051d565b6200069b60608301846200051d565b95945050505050565b61141f80620006b46000396000f3fe608060405234801561001057600080fd5b506004361061007d5760003560e01c80638da5cb5b1161005b5780638da5cb5b146100c6578063b5351b0d146100e4578063f2fde38b14610114578063fc6d0c7e146101305761007d565b806333419af5146100825780634d89eaaf1461009e578063715018a6146100bc575b600080fd5b61009c60048036038101906100979190610a64565b610162565b005b6100a66105be565b6040516100b39190610b10565b60405180910390f35b6100c46105e4565b005b6100ce6105f8565b6040516100db9190610b4c565b60405180910390f35b6100fe60048036038101906100f99190610ba7565b610621565b60405161010b9190610c25565b60405180910390f35b61012e60048036038101906101299190610c6c565b6107b1565b005b61014a60048036038101906101459190610ccf565b610837565b60405161015993929190610d0b565b60405180910390f35b61016a6108a9565b80602001602081019061017d9190610ba7565b67ffffffffffffffff16600260009054906101000a900473ffffffffffffffffffffffffffffffffffffffff1673ffffffffffffffffffffffffffffffffffffffff166306661abd6040518163ffffffff1660e01b8152600401602060405180830381865afa1580156101f4573d6000803e3d6000fd5b505050506040513d601f19601f820116820180604052508101906102189190610d57565b67ffffffffffffffff1611610262576040517f08c379a000000000000000000000000000000000000000000000000000000000815260040161025990610e07565b60405180910390fd5b8060000160208101906102759190610ba7565b67ffffffffffffffff1660018080805490506102919190610e56565b815481106102a2576102a1610e8a565b5b9060005260206000200160000160009054906101000a900467ffffffffffffffff1667ffffffffffffffff16111561030f576040517f08c379a000000000000000000000000000000000000000000000000000000000815260040161030690610f2b565b60405180910390fd5b6000600260009054906101000a900473ffffffffffffffffffffffffffffffffffffffff1673ffffffffffffffffffffffffffffffffffffffff16632a2d01f88360200160208101906103629190610ba7565b6040518263ffffffff1660e01b815260040161037e9190610f4b565b602060405180830381865afa15801561039b573d6000803e3d6000fd5b505050506040513d601f19601f820116820180604052508101906103bf9190610d57565b905060008167ffffffffffffffff16036104375760008260400160208101906103e89190610ba7565b67ffffffffffffffff1614610432576040517f08c379a000000000000000000000000000000000000000000000000000000000815260040161042990610fd8565b60405180910390fd5b610501565b600182604001602081019061044c9190610ba7565b67ffffffffffffffff161015610497576040517f08c379a000000000000000000000000000000000000000000000000000000000815260040161048e90611044565b60405180910390fd5b8067ffffffffffffffff168260400160208101906104b59190610ba7565b67ffffffffffffffff161115610500576040517f08c379a00000000000000000000000000000000000000000000000000000000081526004016104f7906110d6565b60405180910390fd5b5b60018290806001815401808255809150506001900390600052602060002001600090919091909150818161053591906112c5565b50507f97f0f7a37d08d48af6a5f7140aedcc4fa60e92ee1d0607f2d4868c8fc518cc0e82600001602081019061056b9190610ba7565b83602001602081019061057e9190610ba7565b6001808054905061058f91906112d3565b8560400160208101906105a29190610ba7565b6040516105b2949392919061130f565b60405180910390a15050565b600260009054906101000a900473ffffffffffffffffffffffffffffffffffffffff1681565b6105ec6108a9565b6105f66000610930565b565b60008060009054906101000a900473ffffffffffffffffffffffffffffffffffffffff16905090565b6106296109fc565b60006001808054905061063c9190610e56565b90505b600115610770578267ffffffffffffffff166001828154811061066557610664610e8a565b5b9060005260206000200160000160009054906101000a900467ffffffffffffffff1667ffffffffffffffff161161075d57600181815481106106aa576106a9610e8a565b5b906000526020600020016040518060600160405290816000820160009054906101000a900467ffffffffffffffff1667ffffffffffffffff1667ffffffffffffffff1681526020016000820160089054906101000a900467ffffffffffffffff1667ffffffffffffffff1667ffffffffffffffff1681526020016000820160109054906101000a900467ffffffffffffffff1667ffffffffffffffff1667ffffffffffffffff16815250509150506107ac565b808061076890611354565b91505061063f565b506040517f08c379a00000000000000000000000000000000000000000000000000000000081526004016107a3906113c9565b60405180910390fd5b919050565b6107b96108a9565b600073ffffffffffffffffffffffffffffffffffffffff168173ffffffffffffffffffffffffffffffffffffffff160361082b5760006040517f1e4fbdf70000000000000000000000000000000000000000000000000000000081526004016108229190610b4c565b60405180910390fd5b61083481610930565b50565b6001818154811061084757600080fd5b906000526020600020016000915090508060000160009054906101000a900467ffffffffffffffff16908060000160089054906101000a900467ffffffffffffffff16908060000160109054906101000a900467ffffffffffffffff16905083565b6108b16109f4565b73ffffffffffffffffffffffffffffffffffffffff166108cf6105f8565b73ffffffffffffffffffffffffffffffffffffffff161461092e576108f26109f4565b6040517f118cdaa70000000000000000000000000000000000000000000000000000000081526004016109259190610b4c565b60405180910390fd5b565b60008060009054906101000a900473ffffffffffffffffffffffffffffffffffffffff169050816000806101000a81548173ffffffffffffffffffffffffffffffffffffffff021916908373ffffffffffffffffffffffffffffffffffffffff1602179055508173ffffffffffffffffffffffffffffffffffffffff168173ffffffffffffffffffffffffffffffffffffffff167f8be0079c531659141344cd1fd0a4f28419497f9722a3daafe3b4186f6b6457e060405160405180910390a35050565b600033905090565b6040518060600160405280600067ffffffffffffffff168152602001600067ffffffffffffffff168152602001600067ffffffffffffffff1681525090565b600080fd5b600080fd5b600060608284031215610a5b57610a5a610a40565b5b81905092915050565b600060608284031215610a7a57610a79610a3b565b5b6000610a8884828501610a45565b91505092915050565b600073ffffffffffffffffffffffffffffffffffffffff82169050919050565b6000819050919050565b6000610ad6610ad1610acc84610a91565b610ab1565b610a91565b9050919050565b6000610ae882610abb565b9050919050565b6000610afa82610add565b9050919050565b610b0a81610aef565b82525050565b6000602082019050610b256000830184610b01565b92915050565b6000610b3682610a91565b9050919050565b610b4681610b2b565b82525050565b6000602082019050610b616000830184610b3d565b92915050565b600067ffffffffffffffff82169050919050565b610b8481610b67565b8114610b8f57600080fd5b50565b600081359050610ba181610b7b565b92915050565b600060208284031215610bbd57610bbc610a3b565b5b6000610bcb84828501610b92565b91505092915050565b610bdd81610b67565b82525050565b606082016000820151610bf96000850182610bd4565b506020820151610c0c6020850182610bd4565b506040820151610c1f6040850182610bd4565b50505050565b6000606082019050610c3a6000830184610be3565b92915050565b610c4981610b2b565b8114610c5457600080fd5b50565b600081359050610c6681610c40565b92915050565b600060208284031215610c8257610c81610a3b565b5b6000610c9084828501610c57565b91505092915050565b6000819050919050565b610cac81610c99565b8114610cb757600080fd5b50565b600081359050610cc981610ca3565b92915050565b600060208284031215610ce557610ce4610a3b565b5b6000610cf384828501610cba565b91505092915050565b610d0581610b67565b82525050565b6000606082019050610d206000830186610cfc565b610d2d6020830185610cfc565b610d3a6040830184610cfc565b949350505050565b600081519050610d5181610b7b565b92915050565b600060208284031215610d6d57610d6c610a3b565b5b6000610d7b84828501610d42565b91505092915050565b600082825260208201905092915050565b7f4e6f20617070656e6465642073657420696e2073657120636f72726573706f6e60008201527f64696e6720746f20636f6e66696727732073657420696e646578000000000000602082015250565b6000610df1603a83610d84565b9150610dfc82610d95565b604082019050919050565b60006020820190508181036000830152610e2081610de4565b9050919050565b7f4e487b7100000000000000000000000000000000000000000000000000000000600052601160045260246000fd5b6000610e6182610c99565b9150610e6c83610c99565b9250828203905081811115610e8457610e83610e27565b5b92915050565b7f4e487b7100000000000000000000000000000000000000000000000000000000600052603260045260246000fd5b7f43616e6e6f7420616464206e6577207365742077697468206c6f77657220626c60008201527f6f636b206e756d626572207468616e2070726576696f75730000000000000000602082015250565b6000610f15603883610d84565b9150610f2082610eb9565b604082019050919050565b60006020820190508181036000830152610f4481610f08565b9050919050565b6000602082019050610f606000830184610cfc565b92915050565b7f5468726573686f6c64206d757374206265207a65726f206966206b657970657260008201527f2073657420697320656d70747900000000000000000000000000000000000000602082015250565b6000610fc2602d83610d84565b9150610fcd82610f66565b604082019050919050565b60006020820190508181036000830152610ff181610fb5565b9050919050565b7f5468726573686f6c64206d757374206265206174206c65617374206f6e650000600082015250565b600061102e601e83610d84565b915061103982610ff8565b602082019050919050565b6000602082019050818103600083015261105d81611021565b9050919050565b7f5468726573686f6c64206d757374206e6f7420657863656564206b657970657260008201527f207365742073697a650000000000000000000000000000000000000000000000602082015250565b60006110c0602983610d84565b91506110cb82611064565b604082019050919050565b600060208201905081810360008301526110ef816110b3565b9050919050565b6000813561110381610b7b565b80915050919050565b60008160001b9050919050565b600067ffffffffffffffff61112d8461110c565b9350801983169250808416831791505092915050565b600061115e61115961115484610b67565b610ab1565b610b67565b9050919050565b6000819050919050565b61117882611143565b61118b61118482611165565b8354611119565b8255505050565b60008160401b9050919050565b60006fffffffffffffffff00000000000000006111bb84611192565b9350801983169250808416831791505092915050565b6111da82611143565b6111ed6111e682611165565b835461119f565b8255505050565b60008160801b9050919050565b600077ffffffffffffffff00000000000000000000000000000000611225846111f4565b9350801983169250808416831791505092915050565b61124482611143565b61125761125082611165565b8354611201565b8255505050565b600081016000830180611270816110f6565b905061127c818461116f565b505050600081016020830180611291816110f6565b905061129d81846111d1565b5050506000810160408301806112b2816110f6565b90506112be818461123b565b5050505050565b6112cf828261125e565b5050565b60006112de82610b67565b91506112e983610b67565b9250828203905067ffffffffffffffff81111561130957611308610e27565b5b92915050565b60006080820190506113246000830187610cfc565b6113316020830186610cfc565b61133e6040830185610cfc565b61134b6060830184610cfc565b95945050505050565b600061135f82610c99565b91506000820361137257611371610e27565b5b600182039050919050565b7f756e726561636861626c65000000000000000000000000000000000000000000600082015250565b60006113b3600b83610d84565b91506113be8261137d565b602082019050919050565b600060208201905081810360008301526113e2816113a6565b905091905056fea264697066735822122065075a30c91c4b04c16ae3c00cc9a77dd4a7c4f4d04820817c4ca3e18b69cc3064736f6c63430008160033",
  "devdoc": {
    "errors": {
      "OwnableInvalidOwner(address)": [
        {
          "details": "The owner is not a valid owner account. (eg. `address(0)`)"
        }
      ],
      "OwnableUnauthorizedAccount(address)": [
        {
          "details": "The caller account is not authorized to perform an operation."
        }
      ]
    },
    "kind": "dev",
    "methods": {
      "owner()": {
        "details": "Returns the address of the current owner."
      },
      "renounceOwnership()": {
        "details": "Leaves the contract without owner. It will not be possible to call `onlyOwner` functions. Can only be called by the current owner. NOTE: Renouncing ownership will leave the contract without an owner, thereby disabling any functionality that is only available to the owner."
      },
      "transferOwnership(address)": {
        "details": "Transfers ownership of the contract to a new account (`newOwner`). Can only be called by the current owner."
      }
    },
    "version": 1
  },
  "userdoc": {
    "kind": "user",
    "methods": {},
    "version": 1
  },
  "storageLayout": {
    "storage": [
      {
        "astId": 8,
        "contract": "contracts/keyperset/KeypersConfigsList.sol:KeypersConfigsList",
        "label": "_owner",
        "offset": 0,
        "slot": "0",
        "type": "t_address"
      },
      {
        "astId": 10569,
        "contract": "contracts/keyperset/KeypersConfigsList.sol:KeypersConfigsList",
        "label": "keypersConfigs",
        "offset": 0,
        "slot": "1",
        "type": "t_array(t_struct(KeypersConfig)10563_storage)dyn_storage"
      },
      {
        "astId": 10572,
        "contract": "contracts/keyperset/KeypersConfigsList.sol:KeypersConfigsList",
        "label": "addrsSeq",
        "offset": 0,
        "slot": "2",
        "type": "t_contract(AddrsSeq)10394"
      }
    ],
    "types": {
      "t_address": {
        "encoding": "inplace",
        "label": "address",
        "numberOfBytes": "20"
      },
      "t_array(t_struct(KeypersConfig)10563_storage)dyn_storage": {
        "base": "t_struct(KeypersConfig)10563_storage",
        "encoding": "dynamic_array",
        "label": "struct KeypersConfig[]",
        "numberOfBytes": "32"
      },
      "t_contract(AddrsSeq)10394": {
        "encoding": "inplace",
        "label": "contract AddrsSeq",
        "numberOfBytes": "20"
      },
      "t_struct(KeypersConfig)10563_storage": {
        "encoding": "inplace",
        "label": "struct KeypersConfig",
        "members": [
          {
            "astId": 10558,
            "contract": "contracts/keyperset/KeypersConfigsList.sol:KeypersConfigsList",
            "label": "activationBlockNumber",
            "offset": 0,
            "slot": "0",
            "type": "t_uint64"
          },
          {
            "astId": 10560,
            "contract": "contracts/keyperset/KeypersConfigsList.sol:KeypersConfigsList",
            "label": "setIndex",
            "offset": 8,
            "slot": "0",
            "type": "t_uint64"
          },
          {
            "astId": 10562,
            "contract": "contracts/keyperset/KeypersConfigsList.sol:KeypersConfigsList",
            "label": "threshold",
            "offset": 16,
            "slot": "0",
            "type": "t_uint64"
          }
        ],
        "numberOfBytes": "32"
      },
      "t_uint64": {
        "encoding": "inplace",
        "label": "uint64",
        "numberOfBytes": "8"
      }
    }
  }
}