{
  "address": "0xf88823c6A253564Aa7717b12b86F6FEE259d95b7",
  "abi": [
    {
      "inputs": [],
      "stateMutability": "nonpayable",
      "type": "constructor"
    },
    {
      "inputs": [
        {
          "internalType": "address",
          "name": "owner",
          "type": "address"
        }
      ],
      "name": "OwnableInvalidOwner",
      "type": "error"
    },
    {
      "inputs": [
        {
          "internalType": "address",
          "name": "account",
          "type": "address"
        }
      ],
      "name": "OwnableUnauthorizedAccount",
      "type": "error"
    },
    {
      "anonymous": false,
      "inputs": [
        {
          "indexed": false,
          "internalType": "uint64",
          "name": "n",
          "type": "uint64"
        },
        {
          "indexed": false,
          "internalType": "uint64",
          "name": "i",
          "type": "uint64"
        },
        {
          "indexed": false,
          "internalType": "address[]",
          "name": "newAddrs",
          "type": "address[]"
        }
      ],
      "name": "Added",
      "type": "event"
    },
    {
      "anonymous": false,
      "inputs": [
        {
          "indexed": false,
          "internalType": "uint64",
          "name": "n",
          "type": "uint64"
        }
      ],
      "name": "Appended",
      "type": "event"
    },
    {
      "anonymous": false,
      "inputs": [
        {
          "indexed": true,
          "internalType": "address",
          "name": "previousOwner",
          "type": "address"
        },
        {
          "indexed": true,
          "internalType": "address",
          "name": "newOwner",
          "type": "address"
        }
      ],
      "name": "OwnershipTransferred",
      "type": "event"
    },
    {
      "inputs": [
        {
          "internalType": "address[]",
          "name": "newAddrs",
          "type": "address[]"
        }
      ],
      "name": "add",
      "outputs": [],
      "stateMutability": "nonpayable",
      "type": "function"
    },
    {
      "inputs": [],
      "name": "append",
      "outputs": [],
      "stateMutability": "nonpayable",
      "type": "function"
    },
    {
      "inputs": [
        {
          "internalType": "uint64",
          "name": "n",
          "type": "uint64"
        },
        {
          "internalType": "uint64",
          "name": "i",
          "type": "uint64"
        }
      ],
      "name": "at",
      "outputs": [
        {
          "internalType": "address",
          "name": "",
          "type": "address"
        }
      ],
      "stateMutability": "view",
      "type": "function"
    },
    {
      "inputs": [],
      "name": "count",
      "outputs": [
        {
          "internalType": "uint64",
          "name": "",
          "type": "uint64"
        }
      ],
      "stateMutability": "view",
      "type": "function"
    },
    {
      "inputs": [
        {
          "internalType": "uint64",
          "name": "n",
          "type": "uint64"
        }
      ],
      "name": "countNth",
      "outputs": [
        {
          "internalType": "uint64",
          "name": "",
          "type": "uint64"
        }
      ],
      "stateMutability": "view",
      "type": "function"
    },
    {
      "inputs": [],
      "name": "owner",
      "outputs": [
        {
          "internalType": "address",
          "name": "",
          "type": "address"
        }
      ],
      "stateMutability": "view",
      "type": "function"
    },
    {
      "inputs": [],
      "name": "renounceOwnership",
      "outputs": [],
      "stateMutability": "nonpayable",
      "type": "function"
    },
    {
      "inputs": [
        {
          "internalType": "address",
          "name": "newOwner",
          "type": "address"
        }
      ],
      "name": "transferOwnership",
      "outputs": [],
      "stateMutability": "nonpayable",
      "type": "function"
    }
  ],
  "transactionHash": "0x72f261db1e8ce1df83cc3faba9deb3862979894408e0f969286dabc039169e9e",
  "args": [],
  "numDeployments": 1,
  "solcInputHash": "e2d6d0ee9cfeab87733f4cc6bcb4889b",
  "bytecode": "0x60806040523480156200001157600080fd5b5033600073ffffffffffffffffffffffffffffffffffffffff168173ffffffffffffffffffffffffffffffffffffffff1603620000885760006040517f1e4fbdf70000000000000000000000000000000000000000000000000000000081526004016200007f91906200030d565b60405180910390fd5b6200009981620000b060201b60201c565b50620000aa6200017460201b60201c565b62000359565b60008060009054906101000a900473ffffffffffffffffffffffffffffffffffffffff169050816000806101000a81548173ffffffffffffffffffffffffffffffffffffffff021916908373ffffffffffffffffffffffffffffffffffffffff1602179055508173ffffffffffffffffffffffffffffffffffffffff168173ffffffffffffffffffffffffffffffffffffffff167f8be0079c531659141344cd1fd0a4f28419497f9722a3daafe3b4186f6b6457e060405160405180910390a35050565b60016040518060200160405280600067ffffffffffffffff8111156200019f576200019e6200032a565b5b604051908082528060200260200182016040528015620001ce5781602001602082028036833780820191505090505b50815250908060018154018082558091505060019003906000526020600020016000909190919091506000820151816000019080519060200190620002159291906200021a565b505050565b82805482825590600052602060002090810192821562000296579160200282015b82811115620002955782518260006101000a81548173ffffffffffffffffffffffffffffffffffffffff021916908373ffffffffffffffffffffffffffffffffffffffff160217905550916020019190600101906200023b565b5b509050620002a59190620002a9565b5090565b5b80821115620002c4576000816000905550600101620002aa565b5090565b600073ffffffffffffffffffffffffffffffffffffffff82169050919050565b6000620002f582620002c8565b9050919050565b6200030781620002e8565b82525050565b6000602082019050620003246000830184620002fc565b92915050565b7f4e487b7100000000000000000000000000000000000000000000000000000000600052604160045260246000fd5b610fd180620003696000396000f3fe608060405234801561001057600080fd5b50600436106100885760003560e01c80637f353d551161005b5780637f353d55146101155780638da5cb5b1461011f578063c4c1c94f1461013d578063f2fde38b1461015957610088565b806306661abd1461008d5780632a2d01f8146100ab57806335147092146100db578063715018a61461010b575b600080fd5b610095610175565b6040516100a2919061092f565b60405180910390f35b6100c560048036038101906100c09190610980565b61018d565b6040516100d2919061092f565b60405180910390f35b6100f560048036038101906100f091906109ad565b610222565b6040516101029190610a2e565b60405180910390f35b610113610375565b005b61011d610389565b005b610127610447565b6040516101349190610a2e565b60405180910390f35b61015760048036038101906101529190610aae565b610470565b005b610173600480360381019061016e9190610b27565b6105ec565b005b6000600180805490506101889190610b83565b905090565b6000610197610175565b67ffffffffffffffff168267ffffffffffffffff16106101ec576040517f08c379a00000000000000000000000000000000000000000000000000000000081526004016101e390610c42565b60405180910390fd5b60018267ffffffffffffffff168154811061020a57610209610c62565b5b90600052602060002001600001805490509050919050565b600061022c610175565b67ffffffffffffffff168367ffffffffffffffff1610610281576040517f08c379a000000000000000000000000000000000000000000000000000000000815260040161027890610cdd565b60405180910390fd5b60018367ffffffffffffffff168154811061029f5761029e610c62565b5b90600052602060002001600001805490508267ffffffffffffffff16106102fb576040517f08c379a00000000000000000000000000000000000000000000000000000000081526004016102f290610d49565b60405180910390fd5b60018367ffffffffffffffff168154811061031957610318610c62565b5b906000526020600020016000018267ffffffffffffffff168154811061034257610341610c62565b5b9060005260206000200160009054906101000a900473ffffffffffffffffffffffffffffffffffffffff16905092915050565b61037d610672565b61038760006106f9565b565b610391610672565b600167ffffffffffffffff6103a69190610b83565b67ffffffffffffffff16600180549050106103f6576040517f08c379a00000000000000000000000000000000000000000000000000000000081526004016103ed90610ddb565b60405180910390fd5b7f5ff9c98a1faf73c018d22371cb08c08dec1412825b68523a8e7deaa17683a6b9600180805490506104289190610b83565b604051610435919061092f565b60405180910390a16104456107bd565b565b60008060009054906101000a900473ffffffffffffffffffffffffffffffffffffffff16905090565b610478610672565b60006001808054905061048b9190610e05565b9050600060018267ffffffffffffffff16815481106104ad576104ac610c62565b5b9060005260206000200160000180549050905060005b848490508167ffffffffffffffff1610156105a85760018367ffffffffffffffff16815481106104f6576104f5610c62565b5b9060005260206000200160000185858367ffffffffffffffff168181106105205761051f610c62565b5b90506020020160208101906105359190610b27565b9080600181540180825580915050600190039060005260206000200160009091909190916101000a81548173ffffffffffffffffffffffffffffffffffffffff021916908373ffffffffffffffffffffffffffffffffffffffff16021790555080806105a090610e39565b9150506104c3565b507f54a93d30cc356a58fe6fe472b453c3ea842500e17a2e9972af429d866f305fbd828286866040516105de9493929190610f2c565b60405180910390a150505050565b6105f4610672565b600073ffffffffffffffffffffffffffffffffffffffff168173ffffffffffffffffffffffffffffffffffffffff16036106665760006040517f1e4fbdf700000000000000000000000000000000000000000000000000000000815260040161065d9190610a2e565b60405180910390fd5b61066f816106f9565b50565b61067a61085d565b73ffffffffffffffffffffffffffffffffffffffff16610698610447565b73ffffffffffffffffffffffffffffffffffffffff16146106f7576106bb61085d565b6040517f118cdaa70000000000000000000000000000000000000000000000000000000081526004016106ee9190610a2e565b60405180910390fd5b565b60008060009054906101000a900473ffffffffffffffffffffffffffffffffffffffff169050816000806101000a81548173ffffffffffffffffffffffffffffffffffffffff021916908373ffffffffffffffffffffffffffffffffffffffff1602179055508173ffffffffffffffffffffffffffffffffffffffff168173ffffffffffffffffffffffffffffffffffffffff167f8be0079c531659141344cd1fd0a4f28419497f9722a3daafe3b4186f6b6457e060405160405180910390a35050565b60016040518060200160405280600067ffffffffffffffff8111156107e5576107e4610f6c565b5b6040519080825280602002602001820160405280156108135781602001602082028036833780820191505090505b50815250908060018154018082558091505060019003906000526020600020016000909190919091506000820151816000019080519060200190610858929190610865565b505050565b600033905090565b8280548282559060005260206000209081019282156108de579160200282015b828111156108dd5782518260006101000a81548173ffffffffffffffffffffffffffffffffffffffff021916908373ffffffffffffffffffffffffffffffffffffffff16021790555091602001919060010190610885565b5b5090506108eb91906108ef565b5090565b5b808211156109085760008160009055506001016108f0565b5090565b600067ffffffffffffffff82169050919050565b6109298161090c565b82525050565b60006020820190506109446000830184610920565b92915050565b600080fd5b600080fd5b61095d8161090c565b811461096857600080fd5b50565b60008135905061097a81610954565b92915050565b6000602082840312156109965761099561094a565b5b60006109a48482850161096b565b91505092915050565b600080604083850312156109c4576109c361094a565b5b60006109d28582860161096b565b92505060206109e38582860161096b565b9150509250929050565b600073ffffffffffffffffffffffffffffffffffffffff82169050919050565b6000610a18826109ed565b9050919050565b610a2881610a0d565b82525050565b6000602082019050610a436000830184610a1f565b92915050565b600080fd5b600080fd5b600080fd5b60008083601f840112610a6e57610a6d610a49565b5b8235905067ffffffffffffffff811115610a8b57610a8a610a4e565b5b602083019150836020820283011115610aa757610aa6610a53565b5b9250929050565b60008060208385031215610ac557610ac461094a565b5b600083013567ffffffffffffffff811115610ae357610ae261094f565b5b610aef85828601610a58565b92509250509250929050565b610b0481610a0d565b8114610b0f57600080fd5b50565b600081359050610b2181610afb565b92915050565b600060208284031215610b3d57610b3c61094a565b5b6000610b4b84828501610b12565b91505092915050565b7f4e487b7100000000000000000000000000000000000000000000000000000000600052601160045260246000fd5b6000610b8e8261090c565b9150610b998361090c565b9250828203905067ffffffffffffffff811115610bb957610bb8610b54565b5b92915050565b600082825260208201905092915050565b7f41646472735365712e636f756e744e74683a206e206f7574206f662072616e6760008201527f6500000000000000000000000000000000000000000000000000000000000000602082015250565b6000610c2c602183610bbf565b9150610c3782610bd0565b604082019050919050565b60006020820190508181036000830152610c5b81610c1f565b9050919050565b7f4e487b7100000000000000000000000000000000000000000000000000000000600052603260045260246000fd5b7f41646472735365712e61743a206e206f7574206f662072616e67650000000000600082015250565b6000610cc7601b83610bbf565b9150610cd282610c91565b602082019050919050565b60006020820190508181036000830152610cf681610cba565b9050919050565b7f41646472735365712e61743a2069206f7574206f662072616e67650000000000600082015250565b6000610d33601b83610bbf565b9150610d3e82610cfd565b602082019050919050565b60006020820190508181036000830152610d6281610d26565b9050919050565b7f41646472735365712e617070656e643a20736571206578636565656473206c6960008201527f6d69740000000000000000000000000000000000000000000000000000000000602082015250565b6000610dc5602383610bbf565b9150610dd082610d69565b604082019050919050565b60006020820190508181036000830152610df481610db8565b9050919050565b6000819050919050565b6000610e1082610dfb565b9150610e1b83610dfb565b9250828203905081811115610e3357610e32610b54565b5b92915050565b6000610e448261090c565b915067ffffffffffffffff8203610e5e57610e5d610b54565b5b600182019050919050565b600082825260208201905092915050565b6000819050919050565b610e8d81610a0d565b82525050565b6000610e9f8383610e84565b60208301905092915050565b6000610eba6020840184610b12565b905092915050565b6000602082019050919050565b6000610edb8385610e69565b9350610ee682610e7a565b8060005b85811015610f1f57610efc8284610eab565b610f068882610e93565b9750610f1183610ec2565b925050600181019050610eea565b5085925050509392505050565b6000606082019050610f416000830187610920565b610f4e6020830186610920565b8181036040830152610f61818486610ecf565b905095945050505050565b7f4e487b7100000000000000000000000000000000000000000000000000000000600052604160045260246000fdfea264697066735822122022e1f58667e6f2a2c25766be09ecd93cca23030a4de5daff5eaaa666321ae99864736f6c63430008160033",
  "devdoc": {
    "details": "This sequence of addresses is used to store the list of keypers or the single collator at different points in time. Contrary to what we've done in main chain shutter, we just store the list of addresses here without any information about its validity period. A single list can be referenced by its index. New lists can be created by calling `add` multiple times and appended with a final call to `append`.",
    "errors": {
      "OwnableInvalidOwner(address)": [
        {
          "details": "The owner is not a valid owner account. (eg. `address(0)`)"
        }
      ],
      "OwnableUnauthorizedAccount(address)": [
        {
          "details": "The caller account is not authorized to perform an operation."
        }
      ]
    },
    "kind": "dev",
    "methods": {
      "owner()": {
        "details": "Returns the address of the current owner."
      },
      "renounceOwnership()": {
        "details": "Leaves the contract without owner. It will not be possible to call `onlyOwner` functions. Can only be called by the current owner. NOTE: Renouncing ownership will leave the contract without an owner, thereby disabling any functionality that is only available to the owner."
      },
      "transferOwnership(address)": {
        "details": "Transfers ownership of the contract to a new account (`newOwner`). Can only be called by the current owner."
      }
    },
    "title": "AddrsSeq manages a sequence of a list of addresses",
    "version": 1
  },
  "userdoc": {
    "kind": "user",
    "methods": {
      "add(address[])": {
        "notice": "add adds new addresses to the current list of addresses. This list can be appended to the sequence of lists by calling `append`."
      },
      "append()": {
        "notice": "append appends the current list of addresses added with add to the sequence."
      },
      "at(uint64,uint64)": {
        "notice": "at returns the address at index i of the list at index n"
      },
      "count()": {
        "notice": "count returns the number of appended lists"
      },
      "countNth(uint64)": {
        "notice": "countNth returns the number of addresses stored in the list at index n"
      }
    },
    "version": 1
  },
  "storageLayout": {
    "storage": [
      {
        "astId": 8,
        "contract": "contracts/keyperset/AddrsSeq.sol:AddrsSeq",
        "label": "_owner",
        "offset": 0,
        "slot": "0",
        "type": "t_address"
      },
      {
        "astId": 10194,
        "contract": "contracts/keyperset/AddrsSeq.sol:AddrsSeq",
        "label": "seq",
        "offset": 0,
        "slot": "1",
        "type": "t_array(t_struct(AddrSet)10174_storage)dyn_storage"
      }
    ],
    "types": {
      "t_address": {
        "encoding": "inplace",
        "label": "address",
        "numberOfBytes": "20"
      },
      "t_array(t_address)dyn_storage": {
        "base": "t_address",
        "encoding": "dynamic_array",
        "label": "address[]",
        "numberOfBytes": "32"
      },
      "t_array(t_struct(AddrSet)10174_storage)dyn_storage": {
        "base": "t_struct(AddrSet)10174_storage",
        "encoding": "dynamic_array",
        "label": "struct AddrSet[]",
        "numberOfBytes": "32"
      },
      "t_struct(AddrSet)10174_storage": {
        "encoding": "inplace",
        "label": "struct AddrSet",
        "members": [
          {
            "astId": 10173,
            "contract": "contracts/keyperset/AddrsSeq.sol:AddrsSeq",
            "label": "addrs",
            "offset": 0,
            "slot": "0",
            "type": "t_array(t_address)dyn_storage"
          }
        ],
        "numberOfBytes": "32"
      }
    }
  }
}