{
  "address": "0xCD767be96eB169B1Ae089fF03C3F8ebec2053525",
  "abi": [
    {
      "inputs": [
        {
          "internalType": "address",
          "name": "_sptToken",
          "type": "address"
        }
      ],
      "stateMutability": "nonpayable",
      "type": "constructor"
    },
    {
      "anonymous": false,
      "inputs": [
        {
          "indexed": true,
          "internalType": "bytes32",
          "name": "id",
          "type": "bytes32"
        }
      ],
      "name": "AddedVesting",
      "type": "event"
    },
    {
      "anonymous": false,
      "inputs": [
        {
          "indexed": true,
          "internalType": "bytes32",
          "name": "id",
          "type": "bytes32"
        }
      ],
      "name": "CancelledVesting",
      "type": "event"
    },
    {
      "anonymous": false,
      "inputs": [
        {
          "indexed": true,
          "internalType": "bytes32",
          "name": "id",
          "type": "bytes32"
        },
        {
          "indexed": true,
          "internalType": "address",
          "name": "beneficiary",
          "type": "address"
        }
      ],
      "name": "ClaimedVesting",
      "type": "event"
    },
    {
      "anonymous": false,
      "inputs": [
        {
          "indexed": true,
          "internalType": "bytes32",
          "name": "id",
          "type": "bytes32"
        }
      ],
      "name": "PausedVesting",
      "type": "event"
    },
    {
      "anonymous": false,
      "inputs": [
        {
          "indexed": true,
          "internalType": "bytes32",
          "name": "id",
          "type": "bytes32"
        }
      ],
      "name": "UnpausedVesting",
      "type": "event"
    },
    {
      "inputs": [
        {
          "internalType": "uint8",
          "name": "curveType",
          "type": "uint8"
        },
        {
          "internalType": "bool",
          "name": "managed",
          "type": "bool"
        },
        {
          "internalType": "uint16",
          "name": "durationWeeks",
          "type": "uint16"
        },
        {
          "internalType": "uint64",
          "name": "startDate",
          "type": "uint64"
        },
        {
          "internalType": "uint128",
          "name": "amount",
          "type": "uint128"
        },
        {
          "internalType": "uint128",
          "name": "initialUnlock",
          "type": "uint128"
        },
        {
          "internalType": "bool",
          "name": "requiresSPT",
          "type": "bool"
        }
      ],
      "name": "addVesting",
      "outputs": [
        {
          "internalType": "bytes32",
          "name": "",
          "type": "bytes32"
        }
      ],
      "stateMutability": "nonpayable",
      "type": "function"
    },
    {
      "inputs": [
        {
          "internalType": "bytes32",
          "name": "vestingId",
          "type": "bytes32"
        }
      ],
      "name": "calculateVestedAmount",
      "outputs": [
        {
          "internalType": "uint128",
          "name": "vestedAmount",
          "type": "uint128"
        },
        {
          "internalType": "uint128",
          "name": "claimedAmount",
          "type": "uint128"
        }
      ],
      "stateMutability": "view",
      "type": "function"
    },
    {
      "inputs": [
        {
          "internalType": "bytes32",
          "name": "vestingId",
          "type": "bytes32"
        }
      ],
      "name": "cancelVesting",
      "outputs": [],
      "stateMutability": "nonpayable",
      "type": "function"
    },
    {
      "inputs": [
        {
          "internalType": "bytes32",
          "name": "vestingId",
          "type": "bytes32"
        },
        {
          "internalType": "address",
          "name": "beneficiary",
          "type": "address"
        },
        {
          "internalType": "uint128",
          "name": "tokensToClaim",
          "type": "uint128"
        }
      ],
      "name": "claimVestedTokens",
      "outputs": [],
      "stateMutability": "nonpayable",
      "type": "function"
    },
    {
      "inputs": [
        {
          "internalType": "address",
          "name": "delegatee",
          "type": "address"
        }
      ],
      "name": "delegateTokens",
      "outputs": [],
      "stateMutability": "nonpayable",
      "type": "function"
    },
    {
      "inputs": [],
      "name": "initialised",
      "outputs": [
        {
          "internalType": "bool",
          "name": "",
          "type": "bool"
        }
      ],
      "stateMutability": "view",
      "type": "function"
    },
    {
      "inputs": [
        {
          "internalType": "address",
          "name": "_token",
          "type": "address"
        },
        {
          "internalType": "address",
          "name": "_poolManager",
          "type": "address"
        },
        {
          "internalType": "address",
          "name": "_owner",
          "type": "address"
        }
      ],
      "name": "initialize",
      "outputs": [],
      "stateMutability": "nonpayable",
      "type": "function"
    },
    {
      "inputs": [],
      "name": "owner",
      "outputs": [
        {
          "internalType": "address",
          "name": "",
          "type": "address"
        }
      ],
      "stateMutability": "view",
      "type": "function"
    },
    {
      "inputs": [
        {
          "internalType": "bytes32",
          "name": "vestingId",
          "type": "bytes32"
        }
      ],
      "name": "pauseVesting",
      "outputs": [],
      "stateMutability": "nonpayable",
      "type": "function"
    },
    {
      "inputs": [],
      "name": "poolManager",
      "outputs": [
        {
          "internalType": "address",
          "name": "",
          "type": "address"
        }
      ],
      "stateMutability": "view",
      "type": "function"
    },
    {
      "inputs": [],
      "name": "sptToken",
      "outputs": [
        {
          "internalType": "address",
          "name": "",
          "type": "address"
        }
      ],
      "stateMutability": "view",
      "type": "function"
    },
    {
      "inputs": [],
      "name": "token",
      "outputs": [
        {
          "internalType": "address",
          "name": "",
          "type": "address"
        }
      ],
      "stateMutability": "view",
      "type": "function"
    },
    {
      "inputs": [],
      "name": "tokensAvailableForVesting",
      "outputs": [
        {
          "internalType": "uint256",
          "name": "",
          "type": "uint256"
        }
      ],
      "stateMutability": "view",
      "type": "function"
    },
    {
      "inputs": [],
      "name": "totalTokensInVesting",
      "outputs": [
        {
          "internalType": "uint256",
          "name": "",
          "type": "uint256"
        }
      ],
      "stateMutability": "view",
      "type": "function"
    },
    {
      "inputs": [
        {
          "internalType": "bytes32",
          "name": "vestingId",
          "type": "bytes32"
        }
      ],
      "name": "unpauseVesting",
      "outputs": [],
      "stateMutability": "nonpayable",
      "type": "function"
    },
    {
      "inputs": [
        {
          "internalType": "bytes32",
          "name": "",
          "type": "bytes32"
        }
      ],
      "name": "vestings",
      "outputs": [
        {
          "internalType": "uint128",
          "name": "initialUnlock",
          "type": "uint128"
        },
        {
          "internalType": "uint8",
          "name": "curveType",
          "type": "uint8"
        },
        {
          "internalType": "bool",
          "name": "managed",
          "type": "bool"
        },
        {
          "internalType": "uint16",
          "name": "durationWeeks",
          "type": "uint16"
        },
        {
          "internalType": "uint64",
          "name": "startDate",
          "type": "uint64"
        },
        {
          "internalType": "uint128",
          "name": "amount",
          "type": "uint128"
        },
        {
          "internalType": "uint128",
          "name": "amountClaimed",
          "type": "uint128"
        },
        {
          "internalType": "uint64",
          "name": "pausingDate",
          "type": "uint64"
        },
        {
          "internalType": "bool",
          "name": "cancelled",
          "type": "bool"
        },
        {
          "internalType": "bool",
          "name": "requiresSPT",
          "type": "bool"
        }
      ],
      "stateMutability": "view",
      "type": "function"
    }
  ],
  "transactionHash": "0xbf04dc4f0478458e47c9c2a18c773f3e7cc6b96d9547266be1a1c65bb92a0a92",
  "args": [
    "0xcBe3Aef2fA9899d713cA592737b6aEB33668Ba4e"
  ],
  "numDeployments": 1,
  "solcInputHash": "e2d6d0ee9cfeab87733f4cc6bcb4889b",
  "bytecode": "0x60a06040523480156200001157600080fd5b5060405162003795380380620037958339818101604052810190620000379190620000dc565b8073ffffffffffffffffffffffffffffffffffffffff1660808173ffffffffffffffffffffffffffffffffffffffff1681525050506200010e565b600080fd5b600073ffffffffffffffffffffffffffffffffffffffff82169050919050565b6000620000a48262000077565b9050919050565b620000b68162000097565b8114620000c257600080fd5b50565b600081519050620000d681620000ab565b92915050565b600060208284031215620000f557620000f462000072565b5b60006200010584828501620000c5565b91505092915050565b60805161366462000131600039600081816103e40152610baa01526136646000f3fe608060405234801561001057600080fd5b50600436106101005760003560e01c80638f5b3c3b11610097578063d7faa14511610066578063d7faa1451461027c578063dc4c90d3146102ad578063fc0c546a146102cb578063fec00878146102e957610100565b80638f5b3c3b146101ef5780639fb0c41d1461020b578063b1161b8b14610244578063c0c53b8b1461026057610100565b80632e0427aa116100d35780632e0427aa146101795780633034d534146101975780635d7a8dfd146101b35780638da5cb5b146101d157610100565b806307003bb4146101055780630738048114610123578063166bbd3b146101415780632bafa73c1461015d575b600080fd5b61010d610319565b60405161011a91906121b9565b60405180910390f35b61012b61032a565b60405161013891906121ed565b60405180910390f35b61015b600480360381019061015691906122e9565b610330565b005b6101776004803603810190610172919061233c565b6105a8565b005b61018161081f565b60405161018e91906121ed565b60405180910390f35b6101b160048036038101906101ac919061233c565b6108cf565b005b6101bb610ba8565b6040516101c89190612378565b60405180910390f35b6101d9610bcc565b6040516101e69190612378565b60405180910390f35b6102096004803603810190610204919061233c565b610bf2565b005b6102256004803603810190610220919061233c565b610f34565b60405161023b9a999897969594939291906123fe565b60405180910390f35b61025e6004803603810190610259919061249a565b611046565b005b61027a600480360381019061027591906124c7565b611166565b005b6102966004803603810190610291919061233c565b6113e3565b6040516102a492919061251a565b60405180910390f35b6102b56114a6565b6040516102c29190612378565b60405180910390f35b6102d36114cc565b6040516102e09190612378565b60405180910390f35b61030360048036038101906102fe91906125f3565b6114f2565b60405161031091906126a4565b60405180910390f35b60008054906101000a900460ff1681565b60035481565b600060046000858152602001908152602001600020905060008160010160009054906101000a90046fffffffffffffffffffffffffffffffff166fffffffffffffffffffffffffffffffff16036103bc576040517f08c379a00000000000000000000000000000000000000000000000000000000081526004016103b39061271c565b60405180910390fd5b60006103c98585856115a0565b90508160020160099054906101000a900460ff16156104c2577f000000000000000000000000000000000000000000000000000000000000000073ffffffffffffffffffffffffffffffffffffffff166323b872dd3330846040518463ffffffff1660e01b815260040161043f93929190612777565b6020604051808303816000875af115801561045e573d6000803e3d6000fd5b505050506040513d601f19601f8201168201806040525081019061048291906127c3565b6104c1576040517f08c379a00000000000000000000000000000000000000000000000000000000081526004016104b89061283c565b60405180910390fd5b5b600160009054906101000a900473ffffffffffffffffffffffffffffffffffffffff1673ffffffffffffffffffffffffffffffffffffffff1663a9059cbb85836040518363ffffffff1660e01b815260040161051f92919061285c565b6020604051808303816000875af115801561053e573d6000803e3d6000fd5b505050506040513d601f19601f8201168201806040525081019061056291906127c3565b6105a1576040517f08c379a0000000000000000000000000000000000000000000000000000000008152600401610598906128d1565b60405180910390fd5b5050505050565b600260009054906101000a900473ffffffffffffffffffffffffffffffffffffffff1673ffffffffffffffffffffffffffffffffffffffff163373ffffffffffffffffffffffffffffffffffffffff1614610638576040517f08c379a000000000000000000000000000000000000000000000000000000000815260040161062f90612963565b60405180910390fd5b600060046000838152602001908152602001600020905060008160010160009054906101000a90046fffffffffffffffffffffffffffffffff166fffffffffffffffffffffffffffffffff16036106c4576040517f08c379a00000000000000000000000000000000000000000000000000000000081526004016106bb9061271c565b60405180910390fd5b8060000160119054906101000a900460ff16610715576040517f08c379a000000000000000000000000000000000000000000000000000000000815260040161070c906129f5565b60405180910390fd5b60008160020160009054906101000a900467ffffffffffffffff1667ffffffffffffffff161461077a576040517f08c379a000000000000000000000000000000000000000000000000000000000815260040161077190612a61565b60405180910390fd5b8060000160149054906101000a900467ffffffffffffffff1667ffffffffffffffff164211156107aa57426107c4565b8060000160149054906101000a900467ffffffffffffffff165b8160020160006101000a81548167ffffffffffffffff021916908367ffffffffffffffff160217905550817f871860f90ed272e98149ef133136694f00424a57465aa85bfc2535dfd4d450b860405160405180910390a25050565b6000600354600160009054906101000a900473ffffffffffffffffffffffffffffffffffffffff1673ffffffffffffffffffffffffffffffffffffffff166370a08231306040518263ffffffff1660e01b815260040161087f9190612378565b602060405180830381865afa15801561089c573d6000803e3d6000fd5b505050506040513d601f19601f820116820180604052508101906108c09190612aad565b6108ca9190612b09565b905090565b600260009054906101000a900473ffffffffffffffffffffffffffffffffffffffff1673ffffffffffffffffffffffffffffffffffffffff163373ffffffffffffffffffffffffffffffffffffffff161461095f576040517f08c379a000000000000000000000000000000000000000000000000000000000815260040161095690612963565b60405180910390fd5b600060046000838152602001908152602001600020905060008160010160009054906101000a90046fffffffffffffffffffffffffffffffff166fffffffffffffffffffffffffffffffff16036109eb576040517f08c379a00000000000000000000000000000000000000000000000000000000081526004016109e29061271c565b60405180910390fd5b60008160020160009054906101000a900467ffffffffffffffff1667ffffffffffffffff1603610a50576040517f08c379a0000000000000000000000000000000000000000000000000000000008152600401610a4790612b89565b60405180910390fd5b8060020160089054906101000a900460ff1615610aa2576040517f08c379a0000000000000000000000000000000000000000000000000000000008152600401610a9990612c1b565b60405180910390fd5b60008160020160009054906101000a900467ffffffffffffffff1667ffffffffffffffff16421115610af7578160020160009054906101000a900467ffffffffffffffff1642610af29190612c3b565b610afa565b60005b9050808260000160149054906101000a900467ffffffffffffffff16610b209190612c77565b8260000160146101000a81548167ffffffffffffffff021916908367ffffffffffffffff16021790555060008260020160006101000a81548167ffffffffffffffff021916908367ffffffffffffffff160217905550827f1bf30dbd59905813e462b38cc5a44f3aadd0ee101ec6d7537139f5c7f8a9868560405160405180910390a2505050565b7f000000000000000000000000000000000000000000000000000000000000000081565b600060019054906101000a900473ffffffffffffffffffffffffffffffffffffffff1681565b600260009054906101000a900473ffffffffffffffffffffffffffffffffffffffff1673ffffffffffffffffffffffffffffffffffffffff163373ffffffffffffffffffffffffffffffffffffffff1614610c82576040517f08c379a0000000000000000000000000000000000000000000000000000000008152600401610c7990612963565b60405180910390fd5b600060046000838152602001908152602001600020905060008160010160009054906101000a90046fffffffffffffffffffffffffffffffff166fffffffffffffffffffffffffffffffff1603610d0e576040517f08c379a0000000000000000000000000000000000000000000000000000000008152600401610d059061271c565b60405180910390fd5b8060000160119054906101000a900460ff16610d5f576040517f08c379a0000000000000000000000000000000000000000000000000000000008152600401610d5690612d25565b60405180910390fd5b8060020160089054906101000a900460ff1615610db1576040517f08c379a0000000000000000000000000000000000000000000000000000000008152600401610da890612d91565b60405180910390fd5b60008160000160149054906101000a900467ffffffffffffffff1667ffffffffffffffff16421115905060008260020160009054906101000a900467ffffffffffffffff1667ffffffffffffffff1603610e555780610e105742610e2a565b8160000160149054906101000a900467ffffffffffffffff165b8260020160006101000a81548167ffffffffffffffff021916908367ffffffffffffffff1602179055505b600081610e9557610e6583611868565b8360010160009054906101000a90046fffffffffffffffffffffffffffffffff16610e909190612db1565b610eb7565b8260010160009054906101000a90046fffffffffffffffffffffffffffffffff165b9050806fffffffffffffffffffffffffffffffff1660036000828254610edd9190612b09565b9250508190555060018360020160086101000a81548160ff021916908315150217905550837fc27a46a60d5d211f8ef42242a25d5db8357aefb1bd0e7d8fbab00d4c40d4d1c760405160405180910390a250505050565b60046020528060005260406000206000915090508060000160009054906101000a90046fffffffffffffffffffffffffffffffff16908060000160109054906101000a900460ff16908060000160119054906101000a900460ff16908060000160129054906101000a900461ffff16908060000160149054906101000a900467ffffffffffffffff16908060010160009054906101000a90046fffffffffffffffffffffffffffffffff16908060010160109054906101000a90046fffffffffffffffffffffffffffffffff16908060020160009054906101000a900467ffffffffffffffff16908060020160089054906101000a900460ff16908060020160099054906101000a900460ff1690508a565b600060019054906101000a900473ffffffffffffffffffffffffffffffffffffffff1673ffffffffffffffffffffffffffffffffffffffff163373ffffffffffffffffffffffffffffffffffffffff16146110d6576040517f08c379a00000000000000000000000000000000000000000000000000000000081526004016110cd90612e67565b60405180910390fd5b600160009054906101000a900473ffffffffffffffffffffffffffffffffffffffff1673ffffffffffffffffffffffffffffffffffffffff16635c19a95c826040518263ffffffff1660e01b81526004016111319190612378565b600060405180830381600087803b15801561114b57600080fd5b505af115801561115f573d6000803e3d6000fd5b5050505050565b60008054906101000a900460ff16156111b4576040517f08c379a00000000000000000000000000000000000000000000000000000000081526004016111ab90612ef9565b60405180910390fd5b600073ffffffffffffffffffffffffffffffffffffffff168373ffffffffffffffffffffffffffffffffffffffff1603611223576040517f08c379a000000000000000000000000000000000000000000000000000000000815260040161121a90612f65565b60405180910390fd5b600073ffffffffffffffffffffffffffffffffffffffff168273ffffffffffffffffffffffffffffffffffffffff1603611292576040517f08c379a000000000000000000000000000000000000000000000000000000000815260040161128990612fd1565b60405180910390fd5b600073ffffffffffffffffffffffffffffffffffffffff168173ffffffffffffffffffffffffffffffffffffffff1603611301576040517f08c379a00000000000000000000000000000000000000000000000000000000081526004016112f89061303d565b60405180910390fd5b60016000806101000a81548160ff02191690831515021790555082600160006101000a81548173ffffffffffffffffffffffffffffffffffffffff021916908373ffffffffffffffffffffffffffffffffffffffff16021790555081600260006101000a81548173ffffffffffffffffffffffffffffffffffffffff021916908373ffffffffffffffffffffffffffffffffffffffff16021790555080600060016101000a81548173ffffffffffffffffffffffffffffffffffffffff021916908373ffffffffffffffffffffffffffffffffffffffff160217905550505050565b600080600060046000858152602001908152602001600020905060008160010160009054906101000a90046fffffffffffffffffffffffffffffffff166fffffffffffffffffffffffffffffffff1603611472576040517f08c379a00000000000000000000000000000000000000000000000000000000081526004016114699061271c565b60405180910390fd5b61147b81611868565b92508060010160109054906101000a90046fffffffffffffffffffffffffffffffff16915050915091565b600260009054906101000a900473ffffffffffffffffffffffffffffffffffffffff1681565b600160009054906101000a900473ffffffffffffffffffffffffffffffffffffffff1681565b6000600260009054906101000a900473ffffffffffffffffffffffffffffffffffffffff1673ffffffffffffffffffffffffffffffffffffffff163373ffffffffffffffffffffffffffffffffffffffff1614611584576040517f08c379a000000000000000000000000000000000000000000000000000000000815260040161157b90612963565b60405180910390fd5b61159388888888888888611b7b565b9050979650505050505050565b60008060019054906101000a900473ffffffffffffffffffffffffffffffffffffffff1673ffffffffffffffffffffffffffffffffffffffff163373ffffffffffffffffffffffffffffffffffffffff1614611631576040517f08c379a000000000000000000000000000000000000000000000000000000000815260040161162890612e67565b60405180910390fd5b600073ffffffffffffffffffffffffffffffffffffffff168373ffffffffffffffffffffffffffffffffffffffff16036116a0576040517f08c379a0000000000000000000000000000000000000000000000000000000008152600401611697906130a9565b60405180910390fd5b600060046000868152602001908152602001600020905060008160010160109054906101000a90046fffffffffffffffffffffffffffffffff166116e383611868565b6116ed9190612db1565b90506fffffffffffffffffffffffffffffffff8016846fffffffffffffffffffffffffffffffff16146117205783611722565b805b9250806fffffffffffffffffffffffffffffffff16836fffffffffffffffffffffffffffffffff16111561178b576040517f08c379a000000000000000000000000000000000000000000000000000000000815260040161178290613115565b60405180910390fd5b826fffffffffffffffffffffffffffffffff16600360008282546117af9190612b09565b92505081905550828260010160108282829054906101000a90046fffffffffffffffffffffffffffffffff166117e59190613135565b92506101000a8154816fffffffffffffffffffffffffffffffff02191690836fffffffffffffffffffffffffffffffff1602179055508473ffffffffffffffffffffffffffffffffffffffff16867f9c9c54863033d791217dc9a9f4925abbe91f41a4228bd37482aa3c86e36b542960405160405180910390a350509392505050565b6000428260000160149054906101000a900467ffffffffffffffff1667ffffffffffffffff1611156118cf576040517f08c379a00000000000000000000000000000000000000000000000000000000081526004016118c6906131c5565b60405180910390fd5b6000603c80601860078660000160129054906101000a900461ffff1661ffff166118f991906131e5565b61190391906131e5565b61190d91906131e5565b61191791906131e5565b90506000808460020160009054906101000a900467ffffffffffffffff1667ffffffffffffffff161161196d578360000160149054906101000a900467ffffffffffffffff16426119689190612c3b565b6119aa565b8360000160149054906101000a900467ffffffffffffffff168460020160009054906101000a900467ffffffffffffffff166119a99190612c3b565b5b90508167ffffffffffffffff168167ffffffffffffffff16106119ef578360010160009054906101000a90046fffffffffffffffffffffffffffffffff169250611b74565b60008460000160109054906101000a900460ff1660ff1603611a93578360000160009054906101000a90046fffffffffffffffffffffffffffffffff16611a828560000160009054906101000a90046fffffffffffffffffffffffffffffffff168660010160009054906101000a90046fffffffffffffffffffffffffffffffff16611a7b9190612db1565b8385612030565b611a8c9190613135565b9250611b73565b60018460000160109054906101000a900460ff1660ff1603611b37578360000160009054906101000a90046fffffffffffffffffffffffffffffffff16611b268560000160009054906101000a90046fffffffffffffffffffffffffffffffff168660010160009054906101000a90046fffffffffffffffffffffffffffffffff16611b1f9190612db1565b83856120d2565b611b309190613135565b9250611b72565b6040517f08c379a0000000000000000000000000000000000000000000000000000000008152600401611b699061326e565b60405180910390fd5b5b5b5050919050565b600060028860ff1610611bc3576040517f08c379a0000000000000000000000000000000000000000000000000000000008152600401611bba906132da565b60405180910390fd5b7399fAD8B3658d185474e13D1bE98660dc30077b266330745bde600060019054906101000a900473ffffffffffffffffffffffffffffffffffffffff168a8a8a8a8a8a8a6040518963ffffffff1660e01b8152600401611c2a989796959493929190613354565b602060405180830381865af4158015611c47573d6000803e3d6000fd5b505050506040513d601f19601f82011682018060405250810190611c6b91906133e7565b905060006004600083815260200190815260200160002060010160009054906101000a90046fffffffffffffffffffffffffffffffff166fffffffffffffffffffffffffffffffff1614611cf4576040517f08c379a0000000000000000000000000000000000000000000000000000000008152600401611ceb90613460565b60405180910390fd5b6000611cfe61081f565b9050846fffffffffffffffffffffffffffffffff16811015611d55576040517f08c379a0000000000000000000000000000000000000000000000000000000008152600401611d4c906134cc565b60405180910390fd5b846fffffffffffffffffffffffffffffffff1660036000828254611d7991906134ec565b92505081905550604051806101400160405280856fffffffffffffffffffffffffffffffff1681526020018a60ff16815260200189151581526020018861ffff1681526020018767ffffffffffffffff168152602001866fffffffffffffffffffffffffffffffff16815260200160006fffffffffffffffffffffffffffffffff168152602001600067ffffffffffffffff1681526020016000151581526020018415158152506004600084815260200190815260200160002060008201518160000160006101000a8154816fffffffffffffffffffffffffffffffff02191690836fffffffffffffffffffffffffffffffff16021790555060208201518160000160106101000a81548160ff021916908360ff16021790555060408201518160000160116101000a81548160ff02191690831515021790555060608201518160000160126101000a81548161ffff021916908361ffff16021790555060808201518160000160146101000a81548167ffffffffffffffff021916908367ffffffffffffffff16021790555060a08201518160010160006101000a8154816fffffffffffffffffffffffffffffffff02191690836fffffffffffffffffffffffffffffffff16021790555060c08201518160010160106101000a8154816fffffffffffffffffffffffffffffffff02191690836fffffffffffffffffffffffffffffffff16021790555060e08201518160020160006101000a81548167ffffffffffffffff021916908367ffffffffffffffff1602179055506101008201518160020160086101000a81548160ff0219169083151502179055506101208201518160020160096101000a81548160ff021916908315150217905550905050817fdc17a56285031761fb7a86d90a31227531205e1e9e8f85f4d0f03a54ea5fb97660405160405180910390a250979650505050505050565b6000808267ffffffffffffffff168467ffffffffffffffff16866fffffffffffffffffffffffffffffffff166120669190613520565b6120709190613591565b90506fffffffffffffffffffffffffffffffff80168111156120c7576040517f08c379a00000000000000000000000000000000000000000000000000000000081526004016120be9061360e565b60405180910390fd5b809150509392505050565b6000808267ffffffffffffffff168367ffffffffffffffff166120f59190613520565b8467ffffffffffffffff168567ffffffffffffffff16876fffffffffffffffffffffffffffffffff166121289190613520565b6121329190613520565b61213c9190613591565b90506fffffffffffffffffffffffffffffffff8016811115612193576040517f08c379a000000000000000000000000000000000000000000000000000000000815260040161218a9061360e565b60405180910390fd5b809150509392505050565b60008115159050919050565b6121b38161219e565b82525050565b60006020820190506121ce60008301846121aa565b92915050565b6000819050919050565b6121e7816121d4565b82525050565b600060208201905061220260008301846121de565b92915050565b600080fd5b6000819050919050565b6122208161220d565b811461222b57600080fd5b50565b60008135905061223d81612217565b92915050565b600073ffffffffffffffffffffffffffffffffffffffff82169050919050565b600061226e82612243565b9050919050565b61227e81612263565b811461228957600080fd5b50565b60008135905061229b81612275565b92915050565b60006fffffffffffffffffffffffffffffffff82169050919050565b6122c6816122a1565b81146122d157600080fd5b50565b6000813590506122e3816122bd565b92915050565b60008060006060848603121561230257612301612208565b5b60006123108682870161222e565b93505060206123218682870161228c565b9250506040612332868287016122d4565b9150509250925092565b60006020828403121561235257612351612208565b5b60006123608482850161222e565b91505092915050565b61237281612263565b82525050565b600060208201905061238d6000830184612369565b92915050565b61239c816122a1565b82525050565b600060ff82169050919050565b6123b8816123a2565b82525050565b600061ffff82169050919050565b6123d5816123be565b82525050565b600067ffffffffffffffff82169050919050565b6123f8816123db565b82525050565b600061014082019050612414600083018d612393565b612421602083018c6123af565b61242e604083018b6121aa565b61243b606083018a6123cc565b61244860808301896123ef565b61245560a0830188612393565b61246260c0830187612393565b61246f60e08301866123ef565b61247d6101008301856121aa565b61248b6101208301846121aa565b9b9a5050505050505050505050565b6000602082840312156124b0576124af612208565b5b60006124be8482850161228c565b91505092915050565b6000806000606084860312156124e0576124df612208565b5b60006124ee8682870161228c565b93505060206124ff8682870161228c565b92505060406125108682870161228c565b9150509250925092565b600060408201905061252f6000830185612393565b61253c6020830184612393565b9392505050565b61254c816123a2565b811461255757600080fd5b50565b60008135905061256981612543565b92915050565b6125788161219e565b811461258357600080fd5b50565b6000813590506125958161256f565b92915050565b6125a4816123be565b81146125af57600080fd5b50565b6000813590506125c18161259b565b92915050565b6125d0816123db565b81146125db57600080fd5b50565b6000813590506125ed816125c7565b92915050565b600080600080600080600060e0888a03121561261257612611612208565b5b60006126208a828b0161255a565b97505060206126318a828b01612586565b96505060406126428a828b016125b2565b95505060606126538a828b016125de565b94505060806126648a828b016122d4565b93505060a06126758a828b016122d4565b92505060c06126868a828b01612586565b91505092959891949750929550565b61269e8161220d565b82525050565b60006020820190506126b96000830184612695565b92915050565b600082825260208201905092915050565b7f56657374696e67206e6f7420666f756e64000000000000000000000000000000600082015250565b60006127066011836126bf565b9150612711826126d0565b602082019050919050565b60006020820190508181036000830152612735816126f9565b9050919050565b6000819050919050565b600061276161275c612757846122a1565b61273c565b6121d4565b9050919050565b61277181612746565b82525050565b600060608201905061278c6000830186612369565b6127996020830185612369565b6127a66040830184612768565b949350505050565b6000815190506127bd8161256f565b92915050565b6000602082840312156127d9576127d8612208565b5b60006127e7848285016127ae565b91505092915050565b7f535054207472616e73666572206661696c656400000000000000000000000000600082015250565b60006128266013836126bf565b9150612831826127f0565b602082019050919050565b6000602082019050818103600083015261285581612819565b9050919050565b60006040820190506128716000830185612369565b61287e6020830184612768565b9392505050565b7f546f6b656e207472616e73666572206661696c65640000000000000000000000600082015250565b60006128bb6015836126bf565b91506128c682612885565b602082019050919050565b600060208201905081810360008301526128ea816128ae565b9050919050565b7f43616e206f6e6c792062652063616c6c656420627920706f6f6c206d616e616760008201527f6572000000000000000000000000000000000000000000000000000000000000602082015250565b600061294d6022836126bf565b9150612958826128f1565b604082019050919050565b6000602082019050818103600083015261297c81612940565b9050919050565b7f4f6e6c79206d616e616765642076657374696e67732063616e2062652070617560008201527f7365640000000000000000000000000000000000000000000000000000000000602082015250565b60006129df6023836126bf565b91506129ea82612983565b604082019050919050565b60006020820190508181036000830152612a0e816129d2565b9050919050565b7f56657374696e6720616c72656164792070617573656400000000000000000000600082015250565b6000612a4b6016836126bf565b9150612a5682612a15565b602082019050919050565b60006020820190508181036000830152612a7a81612a3e565b9050919050565b612a8a816121d4565b8114612a9557600080fd5b50565b600081519050612aa781612a81565b92915050565b600060208284031215612ac357612ac2612208565b5b6000612ad184828501612a98565b91505092915050565b7f4e487b7100000000000000000000000000000000000000000000000000000000600052601160045260246000fd5b6000612b14826121d4565b9150612b1f836121d4565b9250828203905081811115612b3757612b36612ada565b5b92915050565b7f56657374696e67206973206e6f74207061757365640000000000000000000000600082015250565b6000612b736015836126bf565b9150612b7e82612b3d565b602082019050919050565b60006020820190508181036000830152612ba281612b66565b9050919050565b7f56657374696e6720686173206265656e2063616e63656c6c656420616e64206360008201527f616e6e6f7420626520756e706175736564000000000000000000000000000000602082015250565b6000612c056031836126bf565b9150612c1082612ba9565b604082019050919050565b60006020820190508181036000830152612c3481612bf8565b9050919050565b6000612c46826123db565b9150612c51836123db565b9250828203905067ffffffffffffffff811115612c7157612c70612ada565b5b92915050565b6000612c82826123db565b9150612c8d836123db565b9250828201905067ffffffffffffffff811115612cad57612cac612ada565b5b92915050565b7f4f6e6c79206d616e616765642076657374696e67732063616e2062652063616e60008201527f63656c6c65640000000000000000000000000000000000000000000000000000602082015250565b6000612d0f6026836126bf565b9150612d1a82612cb3565b604082019050919050565b60006020820190508181036000830152612d3e81612d02565b9050919050565b7f56657374696e6720616c72656164792063616e63656c6c656400000000000000600082015250565b6000612d7b6019836126bf565b9150612d8682612d45565b602082019050919050565b60006020820190508181036000830152612daa81612d6e565b9050919050565b6000612dbc826122a1565b9150612dc7836122a1565b925082820390506fffffffffffffffffffffffffffffffff811115612def57612dee612ada565b5b92915050565b7f43616e206f6e6c7920626520636c61696d65642062792076657374696e67206f60008201527f776e657200000000000000000000000000000000000000000000000000000000602082015250565b6000612e516024836126bf565b9150612e5c82612df5565b604082019050919050565b60006020820190508181036000830152612e8081612e44565b9050919050565b7f54686520636f6e74726163742068617320616c7265616479206265656e20696e60008201527f697469616c697365642e00000000000000000000000000000000000000000000602082015250565b6000612ee3602a836126bf565b9150612eee82612e87565b604082019050919050565b60006020820190508181036000830152612f1281612ed6565b9050919050565b7f496e76616c696420746f6b656e206163636f756e740000000000000000000000600082015250565b6000612f4f6015836126bf565b9150612f5a82612f19565b602082019050919050565b60006020820190508181036000830152612f7e81612f42565b9050919050565b7f496e76616c696420706f6f6c206d616e61676572206163636f756e7400000000600082015250565b6000612fbb601c836126bf565b9150612fc682612f85565b602082019050919050565b60006020820190508181036000830152612fea81612fae565b9050919050565b7f496e76616c6964206163636f756e740000000000000000000000000000000000600082015250565b6000613027600f836126bf565b915061303282612ff1565b602082019050919050565b600060208201905081810360008301526130568161301a565b9050919050565b7f43616e6e6f7420636c61696d20746f20302d6164647265737300000000000000600082015250565b60006130936019836126bf565b915061309e8261305d565b602082019050919050565b600060208201905081810360008301526130c281613086565b9050919050565b7f547279696e6720746f20636c61696d20746f6f206d616e7920746f6b656e7300600082015250565b60006130ff601f836126bf565b915061310a826130c9565b602082019050919050565b6000602082019050818103600083015261312e816130f2565b9050919050565b6000613140826122a1565b915061314b836122a1565b925082820190506fffffffffffffffffffffffffffffffff81111561317357613172612ada565b5b92915050565b7f56657374696e67206e6f74206163746976652079657400000000000000000000600082015250565b60006131af6016836126bf565b91506131ba82613179565b602082019050919050565b600060208201905081810360008301526131de816131a2565b9050919050565b60006131f0826123db565b91506131fb836123db565b9250828202613209816123db565b915080821461321b5761321a612ada565b5b5092915050565b7f496e76616c696420637572766520747970650000000000000000000000000000600082015250565b60006132586012836126bf565b915061326382613222565b602082019050919050565b600060208201905081810360008301526132878161324b565b9050919050565b7f496e76616c69642076657374696e672063757276650000000000000000000000600082015250565b60006132c46015836126bf565b91506132cf8261328e565b602082019050919050565b600060208201905081810360008301526132f3816132b7565b9050919050565b61330381612263565b82525050565b613312816123a2565b82525050565b6133218161219e565b82525050565b613330816123be565b82525050565b61333f816123db565b82525050565b61334e816122a1565b82525050565b60006101008201905061336a600083018b6132fa565b613377602083018a613309565b6133846040830189613318565b6133916060830188613327565b61339e6080830187613336565b6133ab60a0830186613345565b6133b860c0830185613345565b6133c560e0830184613318565b9998505050505050505050565b6000815190506133e181612217565b92915050565b6000602082840312156133fd576133fc612208565b5b600061340b848285016133d2565b91505092915050565b7f56657374696e6720696420616c72656164792075736564000000000000000000600082015250565b600061344a6017836126bf565b915061345582613414565b602082019050919050565b600060208201905081810360008301526134798161343d565b9050919050565b7f4e6f7420656e6f75676820746f6b656e7320617661696c61626c650000000000600082015250565b60006134b6601b836126bf565b91506134c182613480565b602082019050919050565b600060208201905081810360008301526134e5816134a9565b9050919050565b60006134f7826121d4565b9150613502836121d4565b925082820190508082111561351a57613519612ada565b5b92915050565b600061352b826121d4565b9150613536836121d4565b9250828202613544816121d4565b9150828204841483151761355b5761355a612ada565b5b5092915050565b7f4e487b7100000000000000000000000000000000000000000000000000000000600052601260045260246000fd5b600061359c826121d4565b91506135a7836121d4565b9250826135b7576135b6613562565b5b828204905092915050565b7f4f766572666c6f7720696e2063757276652063616c63756c6174696f6e000000600082015250565b60006135f8601d836126bf565b9150613603826135c2565b602082019050919050565b60006020820190508181036000830152613627816135eb565b905091905056fea26469706673582212209f8b68c49b229935dfafbdf3516542b7eda402107d3dd5d2c6a7937ec34f466964736f6c63430008160033",
  "deployedBytecode": "0x608060405234801561001057600080fd5b50600436106101005760003560e01c80638f5b3c3b11610097578063d7faa14511610066578063d7faa1451461027c578063dc4c90d3146102ad578063fc0c546a146102cb578063fec00878146102e957610100565b80638f5b3c3b146101ef5780639fb0c41d1461020b578063b1161b8b14610244578063c0c53b8b1461026057610100565b80632e0427aa116100d35780632e0427aa146101795780633034d534146101975780635d7a8dfd146101b35780638da5cb5b146101d157610100565b806307003bb4146101055780630738048114610123578063166bbd3b146101415780632bafa73c1461015d575b600080fd5b61010d610319565b60405161011a91906121b9565b60405180910390f35b61012b61032a565b60405161013891906121ed565b60405180910390f35b61015b600480360381019061015691906122e9565b610330565b005b6101776004803603810190610172919061233c565b6105a8565b005b61018161081f565b60405161018e91906121ed565b60405180910390f35b6101b160048036038101906101ac919061233c565b6108cf565b005b6101bb610ba8565b6040516101c89190612378565b60405180910390f35b6101d9610bcc565b6040516101e69190612378565b60405180910390f35b6102096004803603810190610204919061233c565b610bf2565b005b6102256004803603810190610220919061233c565b610f34565b60405161023b9a999897969594939291906123fe565b60405180910390f35b61025e6004803603810190610259919061249a565b611046565b005b61027a600480360381019061027591906124c7565b611166565b005b6102966004803603810190610291919061233c565b6113e3565b6040516102a492919061251a565b60405180910390f35b6102b56114a6565b6040516102c29190612378565b60405180910390f35b6102d36114cc565b6040516102e09190612378565b60405180910390f35b61030360048036038101906102fe91906125f3565b6114f2565b60405161031091906126a4565b60405180910390f35b60008054906101000a900460ff1681565b60035481565b600060046000858152602001908152602001600020905060008160010160009054906101000a90046fffffffffffffffffffffffffffffffff166fffffffffffffffffffffffffffffffff16036103bc576040517f08c379a00000000000000000000000000000000000000000000000000000000081526004016103b39061271c565b60405180910390fd5b60006103c98585856115a0565b90508160020160099054906101000a900460ff16156104c2577f000000000000000000000000000000000000000000000000000000000000000073ffffffffffffffffffffffffffffffffffffffff166323b872dd3330846040518463ffffffff1660e01b815260040161043f93929190612777565b6020604051808303816000875af115801561045e573d6000803e3d6000fd5b505050506040513d601f19601f8201168201806040525081019061048291906127c3565b6104c1576040517f08c379a00000000000000000000000000000000000000000000000000000000081526004016104b89061283c565b60405180910390fd5b5b600160009054906101000a900473ffffffffffffffffffffffffffffffffffffffff1673ffffffffffffffffffffffffffffffffffffffff1663a9059cbb85836040518363ffffffff1660e01b815260040161051f92919061285c565b6020604051808303816000875af115801561053e573d6000803e3d6000fd5b505050506040513d601f19601f8201168201806040525081019061056291906127c3565b6105a1576040517f08c379a0000000000000000000000000000000000000000000000000000000008152600401610598906128d1565b60405180910390fd5b5050505050565b600260009054906101000a900473ffffffffffffffffffffffffffffffffffffffff1673ffffffffffffffffffffffffffffffffffffffff163373ffffffffffffffffffffffffffffffffffffffff1614610638576040517f08c379a000000000000000000000000000000000000000000000000000000000815260040161062f90612963565b60405180910390fd5b600060046000838152602001908152602001600020905060008160010160009054906101000a90046fffffffffffffffffffffffffffffffff166fffffffffffffffffffffffffffffffff16036106c4576040517f08c379a00000000000000000000000000000000000000000000000000000000081526004016106bb9061271c565b60405180910390fd5b8060000160119054906101000a900460ff16610715576040517f08c379a000000000000000000000000000000000000000000000000000000000815260040161070c906129f5565b60405180910390fd5b60008160020160009054906101000a900467ffffffffffffffff1667ffffffffffffffff161461077a576040517f08c379a000000000000000000000000000000000000000000000000000000000815260040161077190612a61565b60405180910390fd5b8060000160149054906101000a900467ffffffffffffffff1667ffffffffffffffff164211156107aa57426107c4565b8060000160149054906101000a900467ffffffffffffffff165b8160020160006101000a81548167ffffffffffffffff021916908367ffffffffffffffff160217905550817f871860f90ed272e98149ef133136694f00424a57465aa85bfc2535dfd4d450b860405160405180910390a25050565b6000600354600160009054906101000a900473ffffffffffffffffffffffffffffffffffffffff1673ffffffffffffffffffffffffffffffffffffffff166370a08231306040518263ffffffff1660e01b815260040161087f9190612378565b602060405180830381865afa15801561089c573d6000803e3d6000fd5b505050506040513d601f19601f820116820180604052508101906108c09190612aad565b6108ca9190612b09565b905090565b600260009054906101000a900473ffffffffffffffffffffffffffffffffffffffff1673ffffffffffffffffffffffffffffffffffffffff163373ffffffffffffffffffffffffffffffffffffffff161461095f576040517f08c379a000000000000000000000000000000000000000000000000000000000815260040161095690612963565b60405180910390fd5b600060046000838152602001908152602001600020905060008160010160009054906101000a90046fffffffffffffffffffffffffffffffff166fffffffffffffffffffffffffffffffff16036109eb576040517f08c379a00000000000000000000000000000000000000000000000000000000081526004016109e29061271c565b60405180910390fd5b60008160020160009054906101000a900467ffffffffffffffff1667ffffffffffffffff1603610a50576040517f08c379a0000000000000000000000000000000000000000000000000000000008152600401610a4790612b89565b60405180910390fd5b8060020160089054906101000a900460ff1615610aa2576040517f08c379a0000000000000000000000000000000000000000000000000000000008152600401610a9990612c1b565b60405180910390fd5b60008160020160009054906101000a900467ffffffffffffffff1667ffffffffffffffff16421115610af7578160020160009054906101000a900467ffffffffffffffff1642610af29190612c3b565b610afa565b60005b9050808260000160149054906101000a900467ffffffffffffffff16610b209190612c77565b8260000160146101000a81548167ffffffffffffffff021916908367ffffffffffffffff16021790555060008260020160006101000a81548167ffffffffffffffff021916908367ffffffffffffffff160217905550827f1bf30dbd59905813e462b38cc5a44f3aadd0ee101ec6d7537139f5c7f8a9868560405160405180910390a2505050565b7f000000000000000000000000000000000000000000000000000000000000000081565b600060019054906101000a900473ffffffffffffffffffffffffffffffffffffffff1681565b600260009054906101000a900473ffffffffffffffffffffffffffffffffffffffff1673ffffffffffffffffffffffffffffffffffffffff163373ffffffffffffffffffffffffffffffffffffffff1614610c82576040517f08c379a0000000000000000000000000000000000000000000000000000000008152600401610c7990612963565b60405180910390fd5b600060046000838152602001908152602001600020905060008160010160009054906101000a90046fffffffffffffffffffffffffffffffff166fffffffffffffffffffffffffffffffff1603610d0e576040517f08c379a0000000000000000000000000000000000000000000000000000000008152600401610d059061271c565b60405180910390fd5b8060000160119054906101000a900460ff16610d5f576040517f08c379a0000000000000000000000000000000000000000000000000000000008152600401610d5690612d25565b60405180910390fd5b8060020160089054906101000a900460ff1615610db1576040517f08c379a0000000000000000000000000000000000000000000000000000000008152600401610da890612d91565b60405180910390fd5b60008160000160149054906101000a900467ffffffffffffffff1667ffffffffffffffff16421115905060008260020160009054906101000a900467ffffffffffffffff1667ffffffffffffffff1603610e555780610e105742610e2a565b8160000160149054906101000a900467ffffffffffffffff165b8260020160006101000a81548167ffffffffffffffff021916908367ffffffffffffffff1602179055505b600081610e9557610e6583611868565b8360010160009054906101000a90046fffffffffffffffffffffffffffffffff16610e909190612db1565b610eb7565b8260010160009054906101000a90046fffffffffffffffffffffffffffffffff165b9050806fffffffffffffffffffffffffffffffff1660036000828254610edd9190612b09565b9250508190555060018360020160086101000a81548160ff021916908315150217905550837fc27a46a60d5d211f8ef42242a25d5db8357aefb1bd0e7d8fbab00d4c40d4d1c760405160405180910390a250505050565b60046020528060005260406000206000915090508060000160009054906101000a90046fffffffffffffffffffffffffffffffff16908060000160109054906101000a900460ff16908060000160119054906101000a900460ff16908060000160129054906101000a900461ffff16908060000160149054906101000a900467ffffffffffffffff16908060010160009054906101000a90046fffffffffffffffffffffffffffffffff16908060010160109054906101000a90046fffffffffffffffffffffffffffffffff16908060020160009054906101000a900467ffffffffffffffff16908060020160089054906101000a900460ff16908060020160099054906101000a900460ff1690508a565b600060019054906101000a900473ffffffffffffffffffffffffffffffffffffffff1673ffffffffffffffffffffffffffffffffffffffff163373ffffffffffffffffffffffffffffffffffffffff16146110d6576040517f08c379a00000000000000000000000000000000000000000000000000000000081526004016110cd90612e67565b60405180910390fd5b600160009054906101000a900473ffffffffffffffffffffffffffffffffffffffff1673ffffffffffffffffffffffffffffffffffffffff16635c19a95c826040518263ffffffff1660e01b81526004016111319190612378565b600060405180830381600087803b15801561114b57600080fd5b505af115801561115f573d6000803e3d6000fd5b5050505050565b60008054906101000a900460ff16156111b4576040517f08c379a00000000000000000000000000000000000000000000000000000000081526004016111ab90612ef9565b60405180910390fd5b600073ffffffffffffffffffffffffffffffffffffffff168373ffffffffffffffffffffffffffffffffffffffff1603611223576040517f08c379a000000000000000000000000000000000000000000000000000000000815260040161121a90612f65565b60405180910390fd5b600073ffffffffffffffffffffffffffffffffffffffff168273ffffffffffffffffffffffffffffffffffffffff1603611292576040517f08c379a000000000000000000000000000000000000000000000000000000000815260040161128990612fd1565b60405180910390fd5b600073ffffffffffffffffffffffffffffffffffffffff168173ffffffffffffffffffffffffffffffffffffffff1603611301576040517f08c379a00000000000000000000000000000000000000000000000000000000081526004016112f89061303d565b60405180910390fd5b60016000806101000a81548160ff02191690831515021790555082600160006101000a81548173ffffffffffffffffffffffffffffffffffffffff021916908373ffffffffffffffffffffffffffffffffffffffff16021790555081600260006101000a81548173ffffffffffffffffffffffffffffffffffffffff021916908373ffffffffffffffffffffffffffffffffffffffff16021790555080600060016101000a81548173ffffffffffffffffffffffffffffffffffffffff021916908373ffffffffffffffffffffffffffffffffffffffff160217905550505050565b600080600060046000858152602001908152602001600020905060008160010160009054906101000a90046fffffffffffffffffffffffffffffffff166fffffffffffffffffffffffffffffffff1603611472576040517f08c379a00000000000000000000000000000000000000000000000000000000081526004016114699061271c565b60405180910390fd5b61147b81611868565b92508060010160109054906101000a90046fffffffffffffffffffffffffffffffff16915050915091565b600260009054906101000a900473ffffffffffffffffffffffffffffffffffffffff1681565b600160009054906101000a900473ffffffffffffffffffffffffffffffffffffffff1681565b6000600260009054906101000a900473ffffffffffffffffffffffffffffffffffffffff1673ffffffffffffffffffffffffffffffffffffffff163373ffffffffffffffffffffffffffffffffffffffff1614611584576040517f08c379a000000000000000000000000000000000000000000000000000000000815260040161157b90612963565b60405180910390fd5b61159388888888888888611b7b565b9050979650505050505050565b60008060019054906101000a900473ffffffffffffffffffffffffffffffffffffffff1673ffffffffffffffffffffffffffffffffffffffff163373ffffffffffffffffffffffffffffffffffffffff1614611631576040517f08c379a000000000000000000000000000000000000000000000000000000000815260040161162890612e67565b60405180910390fd5b600073ffffffffffffffffffffffffffffffffffffffff168373ffffffffffffffffffffffffffffffffffffffff16036116a0576040517f08c379a0000000000000000000000000000000000000000000000000000000008152600401611697906130a9565b60405180910390fd5b600060046000868152602001908152602001600020905060008160010160109054906101000a90046fffffffffffffffffffffffffffffffff166116e383611868565b6116ed9190612db1565b90506fffffffffffffffffffffffffffffffff8016846fffffffffffffffffffffffffffffffff16146117205783611722565b805b9250806fffffffffffffffffffffffffffffffff16836fffffffffffffffffffffffffffffffff16111561178b576040517f08c379a000000000000000000000000000000000000000000000000000000000815260040161178290613115565b60405180910390fd5b826fffffffffffffffffffffffffffffffff16600360008282546117af9190612b09565b92505081905550828260010160108282829054906101000a90046fffffffffffffffffffffffffffffffff166117e59190613135565b92506101000a8154816fffffffffffffffffffffffffffffffff02191690836fffffffffffffffffffffffffffffffff1602179055508473ffffffffffffffffffffffffffffffffffffffff16867f9c9c54863033d791217dc9a9f4925abbe91f41a4228bd37482aa3c86e36b542960405160405180910390a350509392505050565b6000428260000160149054906101000a900467ffffffffffffffff1667ffffffffffffffff1611156118cf576040517f08c379a00000000000000000000000000000000000000000000000000000000081526004016118c6906131c5565b60405180910390fd5b6000603c80601860078660000160129054906101000a900461ffff1661ffff166118f991906131e5565b61190391906131e5565b61190d91906131e5565b61191791906131e5565b90506000808460020160009054906101000a900467ffffffffffffffff1667ffffffffffffffff161161196d578360000160149054906101000a900467ffffffffffffffff16426119689190612c3b565b6119aa565b8360000160149054906101000a900467ffffffffffffffff168460020160009054906101000a900467ffffffffffffffff166119a99190612c3b565b5b90508167ffffffffffffffff168167ffffffffffffffff16106119ef578360010160009054906101000a90046fffffffffffffffffffffffffffffffff169250611b74565b60008460000160109054906101000a900460ff1660ff1603611a93578360000160009054906101000a90046fffffffffffffffffffffffffffffffff16611a828560000160009054906101000a90046fffffffffffffffffffffffffffffffff168660010160009054906101000a90046fffffffffffffffffffffffffffffffff16611a7b9190612db1565b8385612030565b611a8c9190613135565b9250611b73565b60018460000160109054906101000a900460ff1660ff1603611b37578360000160009054906101000a90046fffffffffffffffffffffffffffffffff16611b268560000160009054906101000a90046fffffffffffffffffffffffffffffffff168660010160009054906101000a90046fffffffffffffffffffffffffffffffff16611b1f9190612db1565b83856120d2565b611b309190613135565b9250611b72565b6040517f08c379a0000000000000000000000000000000000000000000000000000000008152600401611b699061326e565b60405180910390fd5b5b5b5050919050565b600060028860ff1610611bc3576040517f08c379a0000000000000000000000000000000000000000000000000000000008152600401611bba906132da565b60405180910390fd5b73__$8c27619e207cb8853e04282c12afad02cf$__6330745bde600060019054906101000a900473ffffffffffffffffffffffffffffffffffffffff168a8a8a8a8a8a8a6040518963ffffffff1660e01b8152600401611c2a989796959493929190613354565b602060405180830381865af4158015611c47573d6000803e3d6000fd5b505050506040513d601f19601f82011682018060405250810190611c6b91906133e7565b905060006004600083815260200190815260200160002060010160009054906101000a90046fffffffffffffffffffffffffffffffff166fffffffffffffffffffffffffffffffff1614611cf4576040517f08c379a0000000000000000000000000000000000000000000000000000000008152600401611ceb90613460565b60405180910390fd5b6000611cfe61081f565b9050846fffffffffffffffffffffffffffffffff16811015611d55576040517f08c379a0000000000000000000000000000000000000000000000000000000008152600401611d4c906134cc565b60405180910390fd5b846fffffffffffffffffffffffffffffffff1660036000828254611d7991906134ec565b92505081905550604051806101400160405280856fffffffffffffffffffffffffffffffff1681526020018a60ff16815260200189151581526020018861ffff1681526020018767ffffffffffffffff168152602001866fffffffffffffffffffffffffffffffff16815260200160006fffffffffffffffffffffffffffffffff168152602001600067ffffffffffffffff1681526020016000151581526020018415158152506004600084815260200190815260200160002060008201518160000160006101000a8154816fffffffffffffffffffffffffffffffff02191690836fffffffffffffffffffffffffffffffff16021790555060208201518160000160106101000a81548160ff021916908360ff16021790555060408201518160000160116101000a81548160ff02191690831515021790555060608201518160000160126101000a81548161ffff021916908361ffff16021790555060808201518160000160146101000a81548167ffffffffffffffff021916908367ffffffffffffffff16021790555060a08201518160010160006101000a8154816fffffffffffffffffffffffffffffffff02191690836fffffffffffffffffffffffffffffffff16021790555060c08201518160010160106101000a8154816fffffffffffffffffffffffffffffffff02191690836fffffffffffffffffffffffffffffffff16021790555060e08201518160020160006101000a81548167ffffffffffffffff021916908367ffffffffffffffff1602179055506101008201518160020160086101000a81548160ff0219169083151502179055506101208201518160020160096101000a81548160ff021916908315150217905550905050817fdc17a56285031761fb7a86d90a31227531205e1e9e8f85f4d0f03a54ea5fb97660405160405180910390a250979650505050505050565b6000808267ffffffffffffffff168467ffffffffffffffff16866fffffffffffffffffffffffffffffffff166120669190613520565b6120709190613591565b90506fffffffffffffffffffffffffffffffff80168111156120c7576040517f08c379a00000000000000000000000000000000000000000000000000000000081526004016120be9061360e565b60405180910390fd5b809150509392505050565b6000808267ffffffffffffffff168367ffffffffffffffff166120f59190613520565b8467ffffffffffffffff168567ffffffffffffffff16876fffffffffffffffffffffffffffffffff166121289190613520565b6121329190613520565b61213c9190613591565b90506fffffffffffffffffffffffffffffffff8016811115612193576040517f08c379a000000000000000000000000000000000000000000000000000000000815260040161218a9061360e565b60405180910390fd5b809150509392505050565b60008115159050919050565b6121b38161219e565b82525050565b60006020820190506121ce60008301846121aa565b92915050565b6000819050919050565b6121e7816121d4565b82525050565b600060208201905061220260008301846121de565b92915050565b600080fd5b6000819050919050565b6122208161220d565b811461222b57600080fd5b50565b60008135905061223d81612217565b92915050565b600073ffffffffffffffffffffffffffffffffffffffff82169050919050565b600061226e82612243565b9050919050565b61227e81612263565b811461228957600080fd5b50565b60008135905061229b81612275565b92915050565b60006fffffffffffffffffffffffffffffffff82169050919050565b6122c6816122a1565b81146122d157600080fd5b50565b6000813590506122e3816122bd565b92915050565b60008060006060848603121561230257612301612208565b5b60006123108682870161222e565b93505060206123218682870161228c565b9250506040612332868287016122d4565b9150509250925092565b60006020828403121561235257612351612208565b5b60006123608482850161222e565b91505092915050565b61237281612263565b82525050565b600060208201905061238d6000830184612369565b92915050565b61239c816122a1565b82525050565b600060ff82169050919050565b6123b8816123a2565b82525050565b600061ffff82169050919050565b6123d5816123be565b82525050565b600067ffffffffffffffff82169050919050565b6123f8816123db565b82525050565b600061014082019050612414600083018d612393565b612421602083018c6123af565b61242e604083018b6121aa565b61243b606083018a6123cc565b61244860808301896123ef565b61245560a0830188612393565b61246260c0830187612393565b61246f60e08301866123ef565b61247d6101008301856121aa565b61248b6101208301846121aa565b9b9a5050505050505050505050565b6000602082840312156124b0576124af612208565b5b60006124be8482850161228c565b91505092915050565b6000806000606084860312156124e0576124df612208565b5b60006124ee8682870161228c565b93505060206124ff8682870161228c565b92505060406125108682870161228c565b9150509250925092565b600060408201905061252f6000830185612393565b61253c6020830184612393565b9392505050565b61254c816123a2565b811461255757600080fd5b50565b60008135905061256981612543565b92915050565b6125788161219e565b811461258357600080fd5b50565b6000813590506125958161256f565b92915050565b6125a4816123be565b81146125af57600080fd5b50565b6000813590506125c18161259b565b92915050565b6125d0816123db565b81146125db57600080fd5b50565b6000813590506125ed816125c7565b92915050565b600080600080600080600060e0888a03121561261257612611612208565b5b60006126208a828b0161255a565b97505060206126318a828b01612586565b96505060406126428a828b016125b2565b95505060606126538a828b016125de565b94505060806126648a828b016122d4565b93505060a06126758a828b016122d4565b92505060c06126868a828b01612586565b91505092959891949750929550565b61269e8161220d565b82525050565b60006020820190506126b96000830184612695565b92915050565b600082825260208201905092915050565b7f56657374696e67206e6f7420666f756e64000000000000000000000000000000600082015250565b60006127066011836126bf565b9150612711826126d0565b602082019050919050565b60006020820190508181036000830152612735816126f9565b9050919050565b6000819050919050565b600061276161275c612757846122a1565b61273c565b6121d4565b9050919050565b61277181612746565b82525050565b600060608201905061278c6000830186612369565b6127996020830185612369565b6127a66040830184612768565b949350505050565b6000815190506127bd8161256f565b92915050565b6000602082840312156127d9576127d8612208565b5b60006127e7848285016127ae565b91505092915050565b7f535054207472616e73666572206661696c656400000000000000000000000000600082015250565b60006128266013836126bf565b9150612831826127f0565b602082019050919050565b6000602082019050818103600083015261285581612819565b9050919050565b60006040820190506128716000830185612369565b61287e6020830184612768565b9392505050565b7f546f6b656e207472616e73666572206661696c65640000000000000000000000600082015250565b60006128bb6015836126bf565b91506128c682612885565b602082019050919050565b600060208201905081810360008301526128ea816128ae565b9050919050565b7f43616e206f6e6c792062652063616c6c656420627920706f6f6c206d616e616760008201527f6572000000000000000000000000000000000000000000000000000000000000602082015250565b600061294d6022836126bf565b9150612958826128f1565b604082019050919050565b6000602082019050818103600083015261297c81612940565b9050919050565b7f4f6e6c79206d616e616765642076657374696e67732063616e2062652070617560008201527f7365640000000000000000000000000000000000000000000000000000000000602082015250565b60006129df6023836126bf565b91506129ea82612983565b604082019050919050565b60006020820190508181036000830152612a0e816129d2565b9050919050565b7f56657374696e6720616c72656164792070617573656400000000000000000000600082015250565b6000612a4b6016836126bf565b9150612a5682612a15565b602082019050919050565b60006020820190508181036000830152612a7a81612a3e565b9050919050565b612a8a816121d4565b8114612a9557600080fd5b50565b600081519050612aa781612a81565b92915050565b600060208284031215612ac357612ac2612208565b5b6000612ad184828501612a98565b91505092915050565b7f4e487b7100000000000000000000000000000000000000000000000000000000600052601160045260246000fd5b6000612b14826121d4565b9150612b1f836121d4565b9250828203905081811115612b3757612b36612ada565b5b92915050565b7f56657374696e67206973206e6f74207061757365640000000000000000000000600082015250565b6000612b736015836126bf565b9150612b7e82612b3d565b602082019050919050565b60006020820190508181036000830152612ba281612b66565b9050919050565b7f56657374696e6720686173206265656e2063616e63656c6c656420616e64206360008201527f616e6e6f7420626520756e706175736564000000000000000000000000000000602082015250565b6000612c056031836126bf565b9150612c1082612ba9565b604082019050919050565b60006020820190508181036000830152612c3481612bf8565b9050919050565b6000612c46826123db565b9150612c51836123db565b9250828203905067ffffffffffffffff811115612c7157612c70612ada565b5b92915050565b6000612c82826123db565b9150612c8d836123db565b9250828201905067ffffffffffffffff811115612cad57612cac612ada565b5b92915050565b7f4f6e6c79206d616e616765642076657374696e67732063616e2062652063616e60008201527f63656c6c65640000000000000000000000000000000000000000000000000000602082015250565b6000612d0f6026836126bf565b9150612d1a82612cb3565b604082019050919050565b60006020820190508181036000830152612d3e81612d02565b9050919050565b7f56657374696e6720616c72656164792063616e63656c6c656400000000000000600082015250565b6000612d7b6019836126bf565b9150612d8682612d45565b602082019050919050565b60006020820190508181036000830152612daa81612d6e565b9050919050565b6000612dbc826122a1565b9150612dc7836122a1565b925082820390506fffffffffffffffffffffffffffffffff811115612def57612dee612ada565b5b92915050565b7f43616e206f6e6c7920626520636c61696d65642062792076657374696e67206f60008201527f776e657200000000000000000000000000000000000000000000000000000000602082015250565b6000612e516024836126bf565b9150612e5c82612df5565b604082019050919050565b60006020820190508181036000830152612e8081612e44565b9050919050565b7f54686520636f6e74726163742068617320616c7265616479206265656e20696e60008201527f697469616c697365642e00000000000000000000000000000000000000000000602082015250565b6000612ee3602a836126bf565b9150612eee82612e87565b604082019050919050565b60006020820190508181036000830152612f1281612ed6565b9050919050565b7f496e76616c696420746f6b656e206163636f756e740000000000000000000000600082015250565b6000612f4f6015836126bf565b9150612f5a82612f19565b602082019050919050565b60006020820190508181036000830152612f7e81612f42565b9050919050565b7f496e76616c696420706f6f6c206d616e61676572206163636f756e7400000000600082015250565b6000612fbb601c836126bf565b9150612fc682612f85565b602082019050919050565b60006020820190508181036000830152612fea81612fae565b9050919050565b7f496e76616c6964206163636f756e740000000000000000000000000000000000600082015250565b6000613027600f836126bf565b915061303282612ff1565b602082019050919050565b600060208201905081810360008301526130568161301a565b9050919050565b7f43616e6e6f7420636c61696d20746f20302d6164647265737300000000000000600082015250565b60006130936019836126bf565b915061309e8261305d565b602082019050919050565b600060208201905081810360008301526130c281613086565b9050919050565b7f547279696e6720746f20636c61696d20746f6f206d616e7920746f6b656e7300600082015250565b60006130ff601f836126bf565b915061310a826130c9565b602082019050919050565b6000602082019050818103600083015261312e816130f2565b9050919050565b6000613140826122a1565b915061314b836122a1565b925082820190506fffffffffffffffffffffffffffffffff81111561317357613172612ada565b5b92915050565b7f56657374696e67206e6f74206163746976652079657400000000000000000000600082015250565b60006131af6016836126bf565b91506131ba82613179565b602082019050919050565b600060208201905081810360008301526131de816131a2565b9050919050565b60006131f0826123db565b91506131fb836123db565b9250828202613209816123db565b915080821461321b5761321a612ada565b5b5092915050565b7f496e76616c696420637572766520747970650000000000000000000000000000600082015250565b60006132586012836126bf565b915061326382613222565b602082019050919050565b600060208201905081810360008301526132878161324b565b9050919050565b7f496e76616c69642076657374696e672063757276650000000000000000000000600082015250565b60006132c46015836126bf565b91506132cf8261328e565b602082019050919050565b600060208201905081810360008301526132f3816132b7565b9050919050565b61330381612263565b82525050565b613312816123a2565b82525050565b6133218161219e565b82525050565b613330816123be565b82525050565b61333f816123db565b82525050565b61334e816122a1565b82525050565b60006101008201905061336a600083018b6132fa565b613377602083018a613309565b6133846040830189613318565b6133916060830188613327565b61339e6080830187613336565b6133ab60a0830186613345565b6133b860c0830185613345565b6133c560e0830184613318565b9998505050505050505050565b6000815190506133e181612217565b92915050565b6000602082840312156133fd576133fc612208565b5b600061340b848285016133d2565b91505092915050565b7f56657374696e6720696420616c72656164792075736564000000000000000000600082015250565b600061344a6017836126bf565b915061345582613414565b602082019050919050565b600060208201905081810360008301526134798161343d565b9050919050565b7f4e6f7420656e6f75676820746f6b656e7320617661696c61626c650000000000600082015250565b60006134b6601b836126bf565b91506134c182613480565b602082019050919050565b600060208201905081810360008301526134e5816134a9565b9050919050565b60006134f7826121d4565b9150613502836121d4565b925082820190508082111561351a57613519612ada565b5b92915050565b600061352b826121d4565b9150613536836121d4565b9250828202613544816121d4565b9150828204841483151761355b5761355a612ada565b5b5092915050565b7f4e487b7100000000000000000000000000000000000000000000000000000000600052601260045260246000fd5b600061359c826121d4565b91506135a7836121d4565b9250826135b7576135b6613562565b5b828204905092915050565b7f4f766572666c6f7720696e2063757276652063616c63756c6174696f6e000000600082015250565b60006135f8601d836126bf565b9150613603826135c2565b602082019050919050565b60006020820190508181036000830152613627816135eb565b905091905056fea26469706673582212209f8b68c49b229935dfafbdf3516542b7eda402107d3dd5d2c6a7937ec34f466964736f6c63430008160033",
  "libraries": {
    "VestingLibrary": "0x99fAD8B3658d185474e13D1bE98660dc30077b26"
  },
  "devdoc": {
    "author": "Daniel Dimitrov - @compojoom, Fred Lhrs - @fredo",
    "kind": "dev",
    "methods": {
      "addVesting(uint8,bool,uint16,uint64,uint128,uint128,bool)": {
        "details": "This can only be called by the pool managerIt is required that the pool has enough tokens available",
        "params": {
          "amount": "Amount of tokens that should be vested in atoms",
          "curveType": "Type of the curve that should be used for the vesting",
          "durationWeeks": "The duration of the vesting in weeks",
          "initialUnlock": "Amount of tokens that should be unlocked immediately",
          "managed": "Boolean that indicates if the vesting can be managed by the pool manager",
          "startDate": "The date when the vesting should be started (can be in the past)"
        },
        "returns": {
          "_0": "vestingId The id of the created vesting"
        }
      },
      "calculateVestedAmount(bytes32)": {
        "details": "This will revert if the vesting has not been started yet",
        "params": {
          "vestingId": "Id of the vesting for which to calculate the amounts"
        },
        "returns": {
          "claimedAmount": "The amount in atoms of tokens claimed",
          "vestedAmount": "The amount in atoms of tokens vested"
        }
      },
      "cancelVesting(bytes32)": {
        "details": "This can only be called by the pool managerOnly manageable vestings can be cancelled",
        "params": {
          "vestingId": "Id of the vesting that should be cancelled"
        }
      },
      "claimVestedTokens(bytes32,address,uint128)": {
        "details": "This can only be called by the owner of the vestingBeneficiary cannot be the 0-addressThis will trigger a transfer of tokens",
        "params": {
          "beneficiary": "Account that should receive the claimed tokens",
          "tokensToClaim": "Amount of tokens to claim in atoms or max uint128 to claim all available",
          "vestingId": "Id of the vesting from which the tokens should be claimed"
        }
      },
      "initialize(address,address,address)": {
        "details": "This can only be called once",
        "params": {
          "_owner": "The owner of this vesting pool (e.g. the address that can call `delegateTokens`)",
          "_poolManager": "The manager of this vesting pool (e.g. the address that can call `addVesting`)",
          "_token": "The token that should be used for the vesting"
        }
      },
      "pauseVesting(bytes32)": {
        "details": "This can only be called by the pool managerOnly manageable vestings can be paused",
        "params": {
          "vestingId": "Id of the vesting that should be paused"
        }
      },
      "tokensAvailableForVesting()": {
        "details": "This value changes when more tokens are deposited to this contract",
        "returns": {
          "_0": "Amount of tokens that can be used for new vestings."
        }
      },
      "unpauseVesting(bytes32)": {
        "details": "This can only be called by the pool managerOnly vestings that have not been cancelled can be unpaused",
        "params": {
          "vestingId": "Id of the vesting that should be unpaused"
        }
      }
    },
    "title": "Vesting contract for single account Original contract - https://github.com/safe-global/safe-token/blob/main/contracts/VestingPool.sol",
    "version": 1
  },
  "userdoc": {
    "kind": "user",
    "methods": {
      "addVesting(uint8,bool,uint16,uint64,uint128,uint128,bool)": {
        "notice": "Create a vesting on this pool for `account`."
      },
      "calculateVestedAmount(bytes32)": {
        "notice": "Calculate vested and claimed token amounts for vesting `vestingId`."
      },
      "cancelVesting(bytes32)": {
        "notice": "Cancel vesting `vestingId`."
      },
      "claimVestedTokens(bytes32,address,uint128)": {
        "notice": "Claim `tokensToClaim` tokens from vesting `vestingId` and transfer them to the `beneficiary`."
      },
      "initialize(address,address,address)": {
        "notice": "Initialize the vesting pool"
      },
      "pauseVesting(bytes32)": {
        "notice": "Pause vesting `vestingId`."
      },
      "tokensAvailableForVesting()": {
        "notice": "Calculate the amount of tokens available for new vestings."
      },
      "unpauseVesting(bytes32)": {
        "notice": "Unpause vesting `vestingId`."
      }
    },
    "version": 1
  },
  "storageLayout": {
    "storage": [
      {
        "astId": 8979,
        "contract": "contracts/VestingPool.sol:VestingPool",
        "label": "initialised",
        "offset": 0,
        "slot": "0",
        "type": "t_bool"
      },
      {
        "astId": 8981,
        "contract": "contracts/VestingPool.sol:VestingPool",
        "label": "owner",
        "offset": 1,
        "slot": "0",
        "type": "t_address"
      },
      {
        "astId": 8983,
        "contract": "contracts/VestingPool.sol:VestingPool",
        "label": "token",
        "offset": 0,
        "slot": "1",
        "type": "t_address"
      },
      {
        "astId": 8987,
        "contract": "contracts/VestingPool.sol:VestingPool",
        "label": "poolManager",
        "offset": 0,
        "slot": "2",
        "type": "t_address"
      },
      {
        "astId": 8989,
        "contract": "contracts/VestingPool.sol:VestingPool",
        "label": "totalTokensInVesting",
        "offset": 0,
        "slot": "3",
        "type": "t_uint256"
      },
      {
        "astId": 8994,
        "contract": "contracts/VestingPool.sol:VestingPool",
        "label": "vestings",
        "offset": 0,
        "slot": "4",
        "type": "t_mapping(t_bytes32,t_struct(Vesting)10789_storage)"
      }
    ],
    "types": {
      "t_address": {
        "encoding": "inplace",
        "label": "address",
        "numberOfBytes": "20"
      },
      "t_bool": {
        "encoding": "inplace",
        "label": "bool",
        "numberOfBytes": "1"
      },
      "t_bytes32": {
        "encoding": "inplace",
        "label": "bytes32",
        "numberOfBytes": "32"
      },
      "t_mapping(t_bytes32,t_struct(Vesting)10789_storage)": {
        "encoding": "mapping",
        "key": "t_bytes32",
        "label": "mapping(bytes32 => struct VestingLibrary.Vesting)",
        "numberOfBytes": "32",
        "value": "t_struct(Vesting)10789_storage"
      },
      "t_struct(Vesting)10789_storage": {
        "encoding": "inplace",
        "label": "struct VestingLibrary.Vesting",
        "members": [
          {
            "astId": 10770,
            "contract": "contracts/VestingPool.sol:VestingPool",
            "label": "initialUnlock",
            "offset": 0,
            "slot": "0",
            "type": "t_uint128"
          },
          {
            "astId": 10772,
            "contract": "contracts/VestingPool.sol:VestingPool",
            "label": "curveType",
            "offset": 16,
            "slot": "0",
            "type": "t_uint8"
          },
          {
            "astId": 10774,
            "contract": "contracts/VestingPool.sol:VestingPool",
            "label": "managed",
            "offset": 17,
            "slot": "0",
            "type": "t_bool"
          },
          {
            "astId": 10776,
            "contract": "contracts/VestingPool.sol:VestingPool",
            "label": "durationWeeks",
            "offset": 18,
            "slot": "0",
            "type": "t_uint16"
          },
          {
            "astId": 10778,
            "contract": "contracts/VestingPool.sol:VestingPool",
            "label": "startDate",
            "offset": 20,
            "slot": "0",
            "type": "t_uint64"
          },
          {
            "astId": 10780,
            "contract": "contracts/VestingPool.sol:VestingPool",
            "label": "amount",
            "offset": 0,
            "slot": "1",
            "type": "t_uint128"
          },
          {
            "astId": 10782,
            "contract": "contracts/VestingPool.sol:VestingPool",
            "label": "amountClaimed",
            "offset": 16,
            "slot": "1",
            "type": "t_uint128"
          },
          {
            "astId": 10784,
            "contract": "contracts/VestingPool.sol:VestingPool",
            "label": "pausingDate",
            "offset": 0,
            "slot": "2",
            "type": "t_uint64"
          },
          {
            "astId": 10786,
            "contract": "contracts/VestingPool.sol:VestingPool",
            "label": "cancelled",
            "offset": 8,
            "slot": "2",
            "type": "t_bool"
          },
          {
            "astId": 10788,
            "contract": "contracts/VestingPool.sol:VestingPool",
            "label": "requiresSPT",
            "offset": 9,
            "slot": "2",
            "type": "t_bool"
          }
        ],
        "numberOfBytes": "96"
      },
      "t_uint128": {
        "encoding": "inplace",
        "label": "uint128",
        "numberOfBytes": "16"
      },
      "t_uint16": {
        "encoding": "inplace",
        "label": "uint16",
        "numberOfBytes": "2"
      },
      "t_uint256": {
        "encoding": "inplace",
        "label": "uint256",
        "numberOfBytes": "32"
      },
      "t_uint64": {
        "encoding": "inplace",
        "label": "uint64",
        "numberOfBytes": "8"
      },
      "t_uint8": {
        "encoding": "inplace",
        "label": "uint8",
        "numberOfBytes": "1"
      }
    }
  }
}